:020000040800F2
:1078000048410020D578000839F8000859BD000823
:107810000000000000000000000000000000000068
:107820000000000000000000000000001501010839
:1078300000000000000000008DFC0008810101082C
:10784000E7780008E778000801FD0008E7780008FD
:10785000E7780008158F0008E77800081F8F0008F8
:10786000E7780008E7780008B98C0008E778000896
:10787000E7780008E7780008E7780008E77800086C
:10788000E7780008E7780008E778000800000000C3
:10789000E7780008E7780008E7780008E77800084C
:1078A000E7780008E7780008E7780008E77800083C
:1078B000D110010891FC000800000000E7780008E2
:1078C0000348854600F078FE0048004749660108F5
:1078D000484100200448804704480047FEE7FEE78F
:1078E000FEE7FEE7FEE7FEE7D9030108C1780008DE
:1078F00030B50B46014600202022012409E00D4648
:10790000D5409D4205D31D469540491B25469540CF
:1079100040191546521E002DF1DC30BD70B5002413
:107920002546002801DA01244042002901DA012518
:107930004942FFF7DDFFAC4200D04042002C00D0AE
:10794000494270BDF0B51FB40646002082B005461E
:107950004024019100901BE0019922460F463046D9
:1079600000F05AFC049A059B801A994110D31046E6
:107970001946224600F040FC361A8F4101972246F4
:1079800001200021009F00F037FC38184D41009085
:107990002046641E0028DFDC019B00982946324601
:1079A00007B0F0BDF0B51FB486B000200090019084
:1079B00002900698069980B204900798090C020478
:1079C0000014114307900027089D099806913E4630
:1079D0003C4603900398A9B20204000C039004985B
:1079E0002D0C154348430021224600F005FCC71921
:1079F000714110340E46402CECDB3846029A00F000
:107A0000FBFB009A019B801800905941029801915C
:107A1000103002904028CCDB00980BB0F0BD000085
:107A2000004870470C17020810B50446FFF7F8FF2E
:107A30000068005DC007C00F10BD014661391929FB
:107A400000D820387047000038B50446C0681821B7
:107A5000401E4843A16840183C21484361684018D3
:107A60003C2148432168451860690C21484321693D
:107A700040186921C900401A3021FFF74FFF114A11
:107A800050434219084600921A2902DB0E49511848
:107A900000910C21FFF742FF0C4A5043009A8018D6
:107AA00000900B4806E0491E425C074B5A43009B7E
:107AB000D21800920029F6DC2146684600F0D0FB7F
:107AC000009838BD801F8607805101008033E10196
:107AD0001017020803460B439B0703D009E008C9AF
:107AE000121F08C0042AFAD203E00B780370401C6E
:107AF000491C521EF9D27047D2B201E00270401CFC
:107B0000491EFBD270470022F6E710B513460A461D
:107B100004461946FFF7F0FF204610BD421E537879
:107B2000521C002BFBD10B781370491C521C002BEC
:107B3000F9D1704730B505462A460B4610781C78B7
:107B4000521C5B1C002801D0A042F7D0002C03D0AF
:107B5000002802D06D1CEFE7284630BD10B5044662
:107B600005E00B780370401C002B00D0491C521E0E
:107B7000F7D2204610BDCAB2401E4178401C8A424E
:107B800002D00029F9D100207047421C0178401C26
:107B90000029FBD1801A704710B5002200E0521C6A
:107BA000835C8C5CA34201D1002BF8D1D8B2E1B246
:107BB000401A10BD03460A780270401C491C002A76
:107BC000F9D11846704730B505460020034600E05D
:107BD0005B1C934205D2EC5CC85C201A01D1002CDE
:107BE000F6D130BD70B5104D002800D128680024B2
:107BF00014E00A4602E09E4203D0521C1378002B88
:107C0000F9D1DAB2224307D0002B06D0002C04D0E1
:107C100000210170401C04E00446401C0678002E40
:107C2000E7D12860204670BD200200200246C9B27C
:107C300000E0401C0378002BFBD102E003788B426C
:107C400003D0401E9042F9D2002070470321001D4E
:107C5000401E037812021A43491EF9D51046704798
:107C600070B5064609F0E2FD046805460A220021C7
:107C7000304600F081FB2C6070BD024670B54A4072
:107C8000D30FDB0740002DD04A002AD0010E140E7E
:107C9000000212020919400A520A8418E50104463A
:107CA0005443000A120A2E045043A4194219200C0E
:107CB000C543AA18120C0125AD03521C5219120417
:107CC0007F39240400D0521C104301D44000491EC7
:107CD000C2B20C06C0092018401C4008802A02D0FD
:107CE00003E0002070BD40084000002900DA0020B9
:107CF000184370BD70B502464A40D50F40004A0097
:107D0000ED0740085208002814D0002A12D0C40DF4
:107D1000D30D41020120C0055202490A520AE41A59
:107D2000091812187D34914201D3641C00E0490007
:107D3000002C01DA002070BD0023914201D3891A82
:107D40000343400849000028F7D100290AD0914296
:107D500002D10121C90705E0914201D2012101E0D0
:107D60000121C943E005C018401900F03DFB70BD7A
:107D7000F0B507460846584087B0C00F0490480049
:107D80000E46590040084908BC1A884105D23846B9
:107D900031461E4617460B4602465800400810431F
:107DA0004CD0300D039040055900400D490D059011
:107DB000401A0290402872DA18030121000B0905CD
:107DC0000843019004980092002805D0019952427E
:107DD0000020884100920190029840210A1A0199DE
:107DE000009800F009FA05460C466B4607CB00F0F8
:107DF00024FAC0197141039A0E0D0023D71756407B
:107E00001A467A40164344D0049A002A2DD0029A8A
:107E1000012A039A15DC1205C01A91410126360584
:107E2000001C7141D20F059ED20700930192029669
:107E30002A46234600F026FB07B0F0BD38463146FF
:107E4000FAE71605224A0F46B218C01AB7410121B7
:107E50000905001C4F4100187F411146181879414F
:107E6000E20F10436D19644113E0E2076D081543FA
:107E70006408C2071443039A01261205C01A9141EF
:107E80003605001C7141CE07400830434908C01830
:107E900051412A46234600F0E8FACDE7FFE704986F
:107EA00001224000C117121A00238B410498314669
:107EB000C417381AA141EEE730B40124E407634047
:107EC00030BC55E730B40124E407614030BC4FE7D3
:107ED0000000E0FFF0B51FB488B00B9909980024AA
:107EE00048400999C00F490049080991C0070B99FA
:107EF0000090490049080B9109990898A646084343
:107F00001CD00B990A98084318D009980124400006
:107F1000420D4800410D099824050003000B204341
:107F200009900B980003000B20430B9050181C493C
:107F30004018002201901446104605E0002001463A
:107F40000DB0F0BD032801DA034600E003239C4690
:107F5000C11A0AAE0AE05F0008ADED5B4F00F75BA7
:107F60007D430027AA187C41491C5B1E6145F2DD58
:107F7000410004AB5A522104120C0A43240C401C49
:107F80000828DFDB0198029000997046019100906B
:107F9000059B049A0799069800F074FAD0E7000050
:107FA0000DFCFFFFF0B50C465C4085B0E40FE40724
:107FB00003944C0000266408590094464908024680
:107FC0000296224321D062460A431ED06200570D1A
:107FD0004A000E032303550D012402462C492405B3
:107FE000781B1B0B360B4018234326436146009039
:107FF0001C46501AB44103D30098401C009002E084
:10800000921800985B41002803DA0020014605B071
:10801000F0BD0020012109050746864611E06446AF
:108020001D46141BB54106D36546521BB341744629
:1080300007430C43A646CD07400849082843921839
:108040005B4105460D43EAD11046184313D0604604
:10805000194650407140084306D06046101AB3419B
:1080600006D20122002306E000220123DB0702E002
:108070000122D2435310009874460105381C614117
:10808000029C039D0019694100F0EFF9BFE7000071
:10809000FD03000070B54B005B0803430BD04B00A1
:1080A0005C0D002633466542B341D417AD1AA34197
:1080B00002DB0020014670BD12053018514170BD31
:1080C000C217C10F504010B54018CA0796230021AF
:1080D00000F092F910BD10B500229623114600F071
:1080E0008BF910BD0EB5C217C10F5040CA0740181A
:1080F0000021054B0293019200910A460B4600F0C5
:10810000C1F903B000BD0000330400000EB50549FD
:108110000291002100910A460B46019100F0B2F94C
:1081200003B000BD33040000410040020122400AB8
:10813000D205090E80187F2901DA002070479629A0
:1081400003DC9622511AC840704796398840704720
:1081500070B5CD0F4A0009030123090B1B05194314
:108160000B4BED070024520D9A4201DA002070BD3E
:10817000074B34339A4203DC9A1A00F04DF802E0C0
:108180000449511888402C43F1D0404270BD000092
:10819000FF030000CDFBFFFFC20FD20740004008E5
:1081A0000BD0C10D0723DB01C91840020905400AA5
:1081B0001143C20840071143704700200146704731
:1081C000CB0FDB07490010B5490802460A4307D028
:1081D0000A0D07240903E401090B121B002A01DC24
:1081E000002010BDC900440F0C43C100E018D205A7
:1081F000801800F0F9F810BD10B5202A04DB014604
:10820000203A9140002010BD914020239C1A034643
:10821000E3401943904010BD10B5202A04DB084606
:10822000203AD040002110BD0B46D340D04020243E
:10823000A21A91400843194610BD10B5202A06DB4A
:10824000CB170846203A1041C1170B4306E00B46F6
:108250001341D0402024A21A91400843194610BD72
:1082600070B50C4600683C21FFF742FB21603C21C1
:10827000FFF73EFB61601821FFF73AFB0546A1605E
:108280000721001DFFF734FBA1610F48A900081862
:108290000E49FFF72DFB0246443288086261E06117
:1082A0003B2802D3910700D0401C0021084B0A460E
:1082B0002161995C814203D8401A521C2261F8E77F
:1082C000401CE060204670BD6C0B0000B50500004E
:1082D000281702080FB400B589B00CA900910B99BA
:1082E0000023CB60204B214A06930792042201927F
:1082F0001F4A02921F4A089202466B46002000F075
:10830000FCF909B008BC04B0184770B586B0064641
:108310000020C0430190002015460C4600910291B8
:1083200004903246694604A8FFF7D4FF0246049839
:108330002118002D05D0002801D0084600E0204675
:108340002860049800280DD0002A02DD0098884299
:1083500008D0081B0190009432466946029404A894
:10836000FFF7B8FF06B070BD518900087189000899
:10837000FFFFFF7F297A0008F7B5009C0F46002613
:108380002578641C002D05D0FFF74AFB0068405D8E
:10839000C007F5D12B2D02D02D2D18D0641E3946E3
:1083A0002046029A00F0F6FA002F04D03968A14264
:1083B00001D1009939607105022400290BDA40428D
:1083C000002803DD09F032FA0460A007FEBD012099
:1083D00080020643E3E70028F8DA09F027FA046090
:1083E0000048FEBDFFFFFF7F002904DA401C490062
:1083F00001D140084000704770B40024050C05D13D
:108400001024000402D1002921D01124050E01D12D
:1084100000020834050F01D10001241D850F01D190
:108420008000A41C002801DB4000641C002908D047
:1084300020252E1B0D46F540A14000D001212943E7
:10844000084301061B1B000ADB1D02D5002070BC7F
:108450007047DB05181880180029F8DA401C49001D
:10846000F5D170BC40084000704710B5002B08DA09
:108470000024401C614192185B411A4301D140081D
:10848000400010BDF0B51FB482B005460C0003D00B
:10849000084609F043F902E009F040F920300246AD
:1084A000009021462846FFF7A7FE049B059A044644
:1084B0000F4618431143084314D0184610431BD0ED
:1084C000009840210A1A18460599FFF7A5FE0546AF
:1084D0000E46009A05990498FFF78EFE084305D0D2
:1084E000012004E02046394607B0F0BD0020C11746
:1084F00005430E432C43374300990E986305401AF9
:108500007905E40A00220C43FD0A0A3002D5002056
:108510000146E9E70105101969410C9C0D9D001900
:108520006941FFF7A2FFDFE74A0009030123090BB6
:108530001B0519430A4B10B5520D9A4202DA00206E
:10854000014610BD064B34339A4203DC9A1AFFF7FA
:1085500063FE10BD034BD218FFF74EFE10BD0000A6
:10856000FF030000CDFBFFFF10B5002904DB012451
:10857000E40740428C412146002B04DB1C460123CA
:10858000DB075242A3418B4200D1824210BD000062
:1085900010B5002904DB0124E40740428C41214648
:1085A000002B04DB1C460123DB075242A341994206
:1085B00000D1904210BD0000064C0125064E05E09A
:1085C000E36807CC2B430C3C98471034B442F7D3F4
:1085D000FFF77AF91C2F02083C2F0208FFB5087834
:1085E00089B01546FF2805D0491C2D2804D000224B
:1085F000002407E000240BE00122F9E70A235C4392
:108600000419491C0878FF28F8D1002A00D06442D8
:10861000002004902A7801462D2A01D02B2A0FD160
:108620006D1C2D2A02D00022049209E00122FBE7F2
:1086300000260A2233466D1CFFF7B4F93818714141
:108640002F78FF2FF4D10C9AA218069202460A4303
:1086500004D0FF23069A9133DA4205DA0021099803
:108660000A4606C00DB0F0BD0024B74AB54D2646F7
:10867000079200F0F1F9029006980391002801DAC0
:10868000474200E0074639050020AF4A001C51412F
:108690000191009012E0F80707D022462B463046A1
:1086A0000799FFF717FC0646079122462B4610460E
:1086B0001946FFF70FFC04460D467F10002FEAD144
:1086C0000698019B0028009A0399029806DAFFF7A2
:1086D00069FC3246079BFFF765FC05E0FFF7FAFBF4
:1086E0003246079BFFF7F6FB049A002A02D00122CC
:1086F000D2075140099A03C2B4E7FFB591B00020F8
:1087000009900025ED432E209E685C681F4601906D
:10871000B9696D1C129888470090396A884700280B
:10872000F6D10098401C0AD00D20C0018443002ED1
:1087300012DD00982B2809D02D280DD103E0002050
:10874000C04315B0F0BD012080020443B9696D1C1F
:1087500012988847761E009003A9600501D52D2048
:1087600000E02B206A461073491C0CA80F91029060
:108770000AE0B9696D1C12988847009001204002F8
:1087800004431398761E0560002E02DD0098302801
:10879000EFD001990098884246D18020044308E038
:1087A0000998401E09900120400204431399681C57
:1087B0000860B9696D1C761E1298884700903028B1
:1087C000EED031E00199884205D1200603D4802003
:1087D0000443761E1EE0009809F070F9002826D0A8
:1087E00001204002044307A90F980331761E8842F6
:1087F0000BD200980F99303808700F98401C0F90DA
:10880000200607D50998401E03E0200602D40998E7
:10881000401C0990A00502D51399681C0860B9692D
:108820006D1C129888470090002ECBDC59E0002E7A
:1088300057DD0098652801D0452852D1A00550D5B4
:10884000032000028443B9696D1C761E1298884784
:108850000090002E0CDD2B2804D02D2808D1FF20FD
:1088600001300443B9696D1C12988847761E009048
:10887000E00501D52D2100E02B210298017002981E
:10888000401C0290019025E00120400204430EA903
:1088900002980131761E88420ED200980299303833
:1088A0000006000E087003D10299019881420AD98E
:1088B0000298401C029006E0E00501D5234801E043
:1088C000224840420990B9696D1C1298884700906F
:1088D00013980560002E04DD009809F0EFF80028D9
:1088E000D2D1F969129888470F99FF200870029930
:1088F00003AA087000200A900B900CA90AA8099BF3
:10890000FFF76CFEA00502D40120C04319E7242024
:10891000044209D0E00713D138680B9A0A99031D65
:108920003B60006806C00BE00B990A98FFF748FC13
:108930000146E00704D13868021D3A600068016012
:108940002846FEE6000014400000F03FF1D8FFFF8B
:108950004268002A08D001680B78491C002B03D01C
:10896000521E06C0184670470121C160881E70471C
:108970004268002A0BD0C3680168002B07D18368C6
:108980008B4204D0491E521C06C0002070470020B4
:10899000C0437047F7B582B0029C00272078641C62
:1089A00015460197302802D0002D15D015E020780B
:1089B0000127641C782804D0582802D0002D09D043
:1089C0000BE0002D01D0102D07D1002710252078B5
:1089D000641C02E0082500E00A250026009610E04D
:1089E0000099012769430818020C294680B2714397
:1089F00000908E183804864201D30120019020781F
:108A0000641C294600F019F80028E9DA03980028C8
:108A100005D0002F01D0641E00E0029C0460019884
:108A2000002806D008F002FF02210160C81E05B030
:108A3000F0BD009930040843F9E73A2800D23038F5
:108A4000202302469A43412A01D3104637388842F0
:108A500001D30020C04370470EB5054A02920022A0
:108A6000009213460192FFF70DFD03B000BD000018
:108A70003304000070B58C180578401C6B075B0F41
:108A800001D10378401C2A1106D10278401C03E072
:108A900006780E70401C491C5B1EF9D12B0705D4CB
:108AA0000023521E0DD40B70491CFAE70378401CBA
:108AB000CB1A921C03E01D780D70491C5B1C521EE2
:108AC000F9D5A142D8D3002070BDF8B50025844661
:108AD0002B46012600220521CF1A0EE05400A6469F
:108AE000015B241800946488A14205D90E467146A2
:108AF0004452009C66800026521C9742EEDC002EF9
:108B000002D15B1C052BE4DB012042006146895A3F
:108B1000401C4D19C0B20528F7D3A803000CF8BDBE
:108B200038B50446064805490068FEF7E1FE604393
:108B300000E0401E00900028FBD138BD40420F00ED
:108B40001C020020F8B50446006881688907890F77
:108B5000012902D10168C90722D18168114A102672
:108B60001140012500290ED181682943816001202F
:108B7000FFF7D6FF01F03CFA07460CE001F038FAA7
:108B8000C01B0A2807D9606D30436065A06D28437B
:108B9000A0650120F8BD20680068C043C007EDD182
:108BA0000020F8BD1700008070B50646002414F0C0
:108BB00065F92DA13046FEF7EFFF00281AD02BA152
:108BC0003046FEF7E9FF002815D0294D18206043F4
:108BD00029583046FEF7AEFF002810D025A13046B8
:108BE000FEF7A8FF002810D01820444360198168C0
:108BF0003046884770BD30460AF074FF70BD641C73
:108C0000E4B2402CE2D9012070BD1BA13046FEF732
:108C100091FF00280ED0182044436019C1683046E7
:108C200088470028F0D115480078002819D10CF0A9
:108C300005FB16E012A13046FEF77CFF00280AD0A3
:108C400007F030FE014618204443601942690DA028
:108C500008F040FD05E018204443601901693046E2
:108C60008847002070BD00004154000041543F007F
:108C7000DCE401083D3F00003D000000A3000020AF
:108C80003F0000005B25755D25730D0A00000000A4
:108C900030B50024074B43431B0D04D0E4183C259A
:108CA0006B43C01AF6E73C2801D33C38641C1060C3
:108CB0000C6030BD4444000010B5024800F042FE94
:108CC00010BD0000F806002030B5446C1C252C4077
:108CD0000125A540046C6560046863608368102BFF
:108CE000036803D099600068C26030BD9A60006874
:108CF000C16030BD10B55021014800F017FA10BD19
:108D0000005E0208F0B5FFB082B000261348710281
:108D10000F1881146846FEF7F6FE00252C46A800C1
:108D2000C01900F0CDFA020E69460A550919020C65
:108D30004A70020A6D1C241D8A70ADB2C870A4B2BC
:108D4000802DECD3694606A008F0C4FC761CF6B270
:108D5000142EDBD37FB002B0F0BD0000005E02082D
:108D600025730000F0B505466448FFB0007884B074
:108D7000012870D10421A86AFEF7C5FE60480024CE
:108D80000090604801F06CF95F4861020818012109
:108D90000190490202A8FEF7B6FE00273E46019860
:108DA000B900081800F08CFA020E02A98A55891938
:108DB000020C4A70020A7F1C361D8A70BFB2C8704E
:108DC000B6B2802FEBD302A8FEF7DFFE002801D158
:108DD000132C51D3A86AFEF7D8FE064602A8FEF768
:108DE000D4FE4A493018884247D2A86AFEF7CDFE21
:108DF000A96A02AA401846A108F07CFC132C74D37F
:108E0000A86AFEF7C2FE00286FD0009800780128FB
:108E100006D002280DD0032814D004281CD023E04B
:108E200000200EF06DFC08281ED100200EF0AEFCD4
:108E30001AE0002010F010FB082815D1002010F0D7
:108E400053F811E000200FF0DFF808280CD10020C3
:108E50000FF0B2F908E04DE000200FF0E1FE082825
:108E600002D100200FF0A6FC7D20000100F03AFEA8
:108E70000421A86AFEF747FE37E000980078012831
:108E800006D002280DD0032814D004281BD022E0DD
:108E900000200EF035FC08281DD100200EF076FCD5
:108EA00019E0002010F0D8FA082814D1002010F0A2
:108EB0001BF810E000200FF0A7F808280BD10020C5
:108EC0000FF07AF907E000200FF0AAFE082802D17F
:108ED00000200FF06FFC7D20000100F003FE042154
:108EE000A86AFEF710FE641EE4B2641CE4B2142CFF
:108EF00000D246E77FB004B0F0BD0000980000202B
:108F0000EC000020E0050020005E0208DA0300000B
:108F10002573000010B5012000F088FF10BD10B5CA
:108F2000FF20013000F082FF802000F07FFF10BDA5
:108F300010B586B0044614216846FEF7E4FD05200E
:108F40000023234901220007002C06D0012C13D056
:108F5000022C1BD0032C23D030E0CC6A1443CC620B
:108F6000C96A0092C907C90F059101930293694626
:108F700000F068FF06B010BDCC6A1443CC62C96A29
:108F80000092C907C90F0591124912E0CC6A144337
:108F9000CC62C96A0092C907C90F05910E4908E061
:108FA000CC6A1443CC62C96A0092C907C90F059103
:108FB0000A4901910293694600F044FF0022022110
:108FC000052001F0ABF8052001F09CF8D2E7000085
:108FD00000100240000031100000211000001110AC
:108FE00010B5044600F0D8FD22460349022000F0E7
:108FF000A9FD00F09DFD10BD0800080870470000A5
:1090000010B5084900224A6107494B684C152343B3
:109010004B604B68082423434B60C009C0010260C9
:1090200010BD00002C3500200020024010B5214A60
:1090300000219069C305204804D5416902231943E2
:109040004161911593699B0505D54369012423432B
:1090500043616302194393695B0505D5436908249D
:1090600023434361E301194393691B0505D5436914
:109070000424234343616302194393699B0405D588
:1090800043691024234343616302194393699B039B
:1090900004D5446920231C43446119439369DB03CD
:1090A00005D54369402423434361A00201439161F4
:1090B00010BD0000002002402C35002070B5054690
:1090C00000F096FF0646184C0AE0681C08D0002DF8
:1090D00004D000F08DFF801BA84201D9032070BD91
:1090E000A069C007F1D1A069800701D50220A06165
:1090F000A069C00511D4A06980050ED4A0694005FF
:109100000BD4A069000508D4A069800405D4A06927
:10911000800302D4A069C00303D5FFF787FF0120B5
:1091200070BD002070BD00000020024070B50D46EB
:109130000646002400F0B8FD094A0020956041C2AF
:109140000849074800F042FD002806D0641CE4B23C
:10915000032CF5D104A008F0BDFA00F079FD70BD34
:10916000501E0020580100206572726F7220696ED7
:10917000204572617365206F7065726174696F6EEE
:109180000A0D000010B50D4900220A604860BC209D
:10919000EFF31084886072B600F086FD0849074836
:1091A00000F014FD002804D084F3108805A008F016
:1091B00091FA00F04DFD84F3108810BD501E002080
:1091C000580100206572726F7220696E20466C61D2
:1091D0007368204572617365206F70657261746990
:1091E0006F6E0A0D0000000010B50D4900220A60E4
:1091F00048600120EFF31084886072B600F054FDDF
:109200000849074800F0E2FC002804D084F31088E5
:1092100005A008F05FFA00F01BFD84F3108810BD74
:10922000501E0020580100206572726F7220696E16
:1092300020466C617368204572617365206F7065AC
:10924000726174696F6E0A0D00000000F8B5164671
:109250000F460546002400F027FD14E0A0003A5810
:109260002946022000F002FD002809D008A008F0DD
:1092700031FA00F0E7FC01460CA008F02BFA04E0FC
:10928000641CA4B22D1DB442E8D300F0E1FCF8BD8B
:109290006572726F7220696E205772697465206FF3
:1092A0007065726174696F6E0A0D0000777269747F
:1092B000655F6572726F725F666C61673A257800F0
:1092C0000168024841604068704700005801002072
:1092D00001481721017070472000002010B50C488C
:1092E000C18F002913D00B4841430B4807F054FBB2
:1092F000094807F063FB09480078012807D10848AE
:10930000807D002803D1064901202039087410BD52
:10931000CC00002080EE3600340500209C000020A8
:109320002000002010B50D480078012808D10C4815
:10933000807D002804D10A4901202039487508742D
:109340000848C18F002907D007484143074807F064
:1093500023FB064807F032FB10BD00009C000020F4
:1093600020000020CC00002080EE360034050020D4
:1093700000B587B014216846FEF7C5FB0948C16AED
:1093800001221143C162C06A694610400590602005
:1093900000900020019002900520000700F052FD8F
:1093A00007B000BD00100240F0B500250126144CA6
:1093B000122787B0012814D014216846FEF7A3FBBA
:1093C000E06A3043E062E06A009730400590032095
:1093D0000190052069460007029500F033FD07B0B3
:1093E000F0BD14216846FEF78EFBE06A3043E06270
:1093F000E06A0097C007C00F01950590E9E70000FB
:1094000000100240F0B58DB004462C216846FEF7EE
:109410007AFB2046FEF724FC0C90601DFEF720FC32
:109420000B9020460830FEF71BFC074620460B3009
:10943000FEF716FC064620460E30FEF711FC0546E8
:1094400020461130FEF70CFC0146074A0C988018A4
:1094500005900B986A46401E0490E2C26846FEF7EB
:10946000F3FA0DB0F0BD000094F8FFFFF8B5054623
:1094700004464035287C0026012808D001202874A5
:10948000206881688907890F01290ED101E0022037
:10949000F8BD0168C90708D0606D202108436065E8
:1094A0000126002028743046F8BD616DFF2201328C
:1094B0009143022211436165C1688907890F0091B8
:1094C000C16889088900C1602068816892071143DA
:1094D000816000F08DFD07460EE000F089FDC01BA5
:1094E0000A2809D9606D022188431021084360656C
:1094F000002028740120F8BD206880680028ECDB7B
:109500002068C168009A1143C160606D80088000C6
:10951000401C6065C5E70000F8B506460D464036BC
:10952000317C01290DD00121317401688A6852070C
:1095300009D5416D2022114341650020307401207E
:10954000F8BD0220F8BD174B6A68D80547109A424B
:10955000154C8A6A2B6812D05B035B0B1A438A6234
:109560002968490305D5A1680143A1600A20FFF7D6
:10957000D7FA2868800312D5A06838430EE05B0351
:109580005B0B9A438A622968490302D5A16881432B
:10959000A1602868800302D5A068B843A0600020BD
:1095A0003074F8BD01100000002701400068006C15
:1095B0007047000070B5040006D0606D2646002597
:1095C0004036002802D006E0012070BDA565357444
:1095D000204600F0D3F8606DC00603D42168886887
:1095E000400705D5606D1021084360653574EBE7D1
:1095F000606DFF220132904302221043606588684B
:109600008207920F5B48012A02D10A68D2072BD148
:10961000032362689B079A4205D05B429A4202D0BC
:109620005B009A4209D10A69920092080A61216896
:109630000A6963681A430A610CE00A699200920899
:109640000A6181680F229204914381608168626897
:10965000114381602168CA6818239A43CA6021684F
:10966000CA68A3681A43CA608168012252069143FE
:1096700081608168A28E52061143816020688168F2
:10968000C90004D481680122120711438160206857
:10969000C168394A1140C1602069E168022825D0BB
:1096A00000200143204620300278037B52035B00F8
:1096B0001A431143226B1143A26992031143E269D9
:1096C000D20311432268D3681943D160616A0A4604
:1096D000FF3AC23A05D0A26A11432268D3681943FF
:1096E000D16042780121012A02D00BE00420D8E7A2
:1096F0000078002823D0606D202210436065A06DA3
:109700000843A065E06B012820681FD00169C907E4
:1097100003D0016949084900016120684169C9080D
:10972000C900416120684169A26B11434161A5658F
:10973000606D80088000401C6065002070BD20685E
:10974000C26801231B041A43C260DBE70269FF23DE
:109750009B009A43026120680269236CA66C1A433D
:10976000636C33431A430261206802690A43026151
:10977000D3E70000002701401902FEFF00680449FA
:10978000884204D10348416B42151143416370473D
:109790000024014000100240F8B504464069254607
:1097A00040350E4608280BD02068C068C00709D095
:1097B000606D202108436065002028740120F8BDF9
:1097C000082700E00C2700F013FC009011E0701C4B
:1097D0000FD0002E05D000F00BFC0099401AB042CB
:1097E00007D9606D042108436065002028740320B8
:1097F000F8BD206800683842E9D0606D0121490257
:10980000084360652068C16809058A0F0C21002A99
:109810001BD12022125D002A17D10268120714D52D
:10982000826853070122002B08DB43688B434360A7
:10983000606D130298431043606506E0606D20235D
:1098400018436065A06D1043A065A069002801D190
:10985000206801600020F8BD70B504462168002032
:109860008968490721D425464035297C01291CD027
:1098700001212974E169012904D02046FFF762F92A
:10988000002811D1616D0A4A1140FF2201321143B3
:1098900061650021A165297422681C21116021687D
:1098A0008A6804231A438A6070BD022070BD0000DC
:1098B000FEF1FFFF30B5014620314A790023022A2C
:1098C00004D00422C2630B71012030BD0268146809
:1098D0000E25AC43146002681468640864001460C8
:1098E000446C1C22144001221546006CA5404560C2
:1098F0004A7118460B7130BD70B500240146203105
:109900004A79022A03D00421C163012418E00268C5
:1099100013680E25AB431360026813685B085B0095
:109920001360436C1C221340012215469D40036CBA
:109930005D604A7100220A71816B002900D088475E
:10994000204670BDF0B4016C0D6801680C68466C6F
:109950001C2304221E401746B7402F420ED0670733
:109960000CD50C68A40602D40C6894430C60416CBE
:1099700019408A40016C4A60016B1AE00227B74027
:1099800002462F402032002F17D0A70715D50C68AC
:10999000A40605D40C680A25AC430C600121517162
:1099A000446C02211C40036CA140596000211171DC
:1099B000C16A002918D0F0BC08470827B7402F42D9
:1099C00012D0240710D50C680E25AC430C60446CF3
:1099D00001211C400B46A340046C6360C1635171BC
:1099E00000211171416BE4E7F0BC704770B50400D1
:1099F0003CD01F48256814212818FDF779FF800006
:109A000060641C48206402212046203002464171D7
:109A100029681948E3680140A0686669184323690A
:109A200033431843A3691843E3691843236A18436F
:109A3000084328600121A0688903884210D00D489E
:109A40008030836A656C1C210D400F26AE40B34305
:109A50008362656C63680D40816AAB400B4383622F
:109A60000020E06301215171107170BD012070BDB3
:109A7000F8FFFDBF000002400F80FFFFF8B504466D
:109A80008C46203001790025012909D00126067174
:109A900041790027012905D0077102252846F8BD24
:109AA0000220F8BD02214171E7632068016849087E
:109AB0004900016061462046FFF706F9206B002847
:109AC0002068016801D00E2205E004229143016064
:109AD000206801680A22114301602068016831434F
:109AE0000160DBE770B5044600F082FA0546601CB1
:109AF00002D004480078241800F07AFA401BA042F3
:109B0000FAD370BD1002002070B5074D04462846F8
:109B1000FFF7D4FA002805D104494861206028469F
:109B2000FFF7CCFA70BD000050C300002C350020B8
:109B30000348416801221143416000207047000042
:109B400000200240F8B5124D0746287C14460E4608
:109B5000012807D0012028740E48FFF7AFFA00282B
:109B600002D00CE00220F8BD00216961022F09D06B
:109B7000012F09D0002F09D00648FFF79FFA0021D6
:109B80002974F8BD3460FAE73480F8E73470F6E7FA
:109B90002C35002050C3000009494868C0070DD08B
:109BA000EFF3108072B6074ACA60074ACA6080F3B2
:109BB00010884868C00701D0012070470020704716
:109BC00000200240EFCDAB8905040302F8B51A4E20
:109BD0000546307C0F46012807D001203074174815
:109BE000FFF76CFA010002D021E00220F8BD00204E
:109BF000C04338606C6814E02046FFF701FA0F4854
:109C0000FFF75CFA01460E48426808239A43426017
:109C1000426843159A434260002901D03C6006E047
:109C20008034A8686A68C0018018A042E4D8002087
:109C300030740846F8BD00002C35002050C30000E9
:109C40000020024001484069704700002C35002088
:109C500005484168022211434160416801221143D5
:109C6000416000207047000000200240F8B50C4C15
:109C70001646207C0F46012808D001202074094890
:109C8000FFF71CFA0025002802D006E00220F8BDEC
:109C900065613E600348FFF711FA2574F8BD0000C6
:109CA0002C35002050C3000011484168C9070BD073
:109CB000EFF3108172B60F4AC2600F4AC26081F39F
:109CC00010884168C9070ED1416889070DD5EFF3A7
:109CD000108172B6094A0261094A026181F3108853
:109CE0004068800701D501207047002070470000C0
:109CF00000200240EFCDAB8905040302BFAE9D8C6E
:109D000016151413F8B53F4901253F4C012805D01D
:109D10002A02022690420BD14E71F8BD88780128A4
:109D2000FBD1207819383028F7D3E570E572F8BDFB
:109D30008028FCD1A574607B00280BD16573334962
:109D4000334806F0C1FD3349314806F025FE30485E
:109D500006F034FEA07A0122401CA07291032E4826
:109D600000F03FF906F09EFD2C4F0025009035E0F5
:109D7000009806F09DFD7D21C900884207D3009818
:109D800006F096FDB84202D20120A07326E00098AA
:109D900006F08EFDB84221D31120FFF721F92048AB
:109DA000C07B01280AD1FFF7F7FE1D481D49203866
:109DB000027F0220FFF7C6FEFFF7BAFE1448A57225
:109DC0001949283806F080FD11486421283806F02A
:109DD000E3FD0F48283806F0F1FD06E0052080215C
:109DE000000700F0F1F80028C2D001210022890309
:109DF000094800F0F6F8A07A052898D1A572A67354
:109E0000F8BD0000D001002020000020B9F80008B3
:109E1000D00400208813000000040050B80B00009C
:109E20000C0100200C0008080DF9000810B50449C9
:109E30004A69024202D04861FFF764FF10BD00008A
:109E400000040140FCB500230124A7E027462A4670
:109E50009F403A406FD04D68012D05D0022D03D0B0
:109E6000112D01D0122D16D185680326AC465D0058
:109E7000AE46AE406546B543AC46CE687546AE408C
:109E800065462E43866046680D79BE43ED06ED0FAC
:109E90009D4035434560C6685F000325BD40AE4622
:109EA000AE4335468E68BE402E43C6604E68022ED5
:109EB00001D0122E14D1DE08B60036180196366A8B
:109EC0005D07B446EE0E0F25B54000966646AE43DC
:109ED000B4460D69009EB54066462E43019D2E6234
:109EE00006687546AE430D79AD07AD0FBD403543ED
:109EF00005604D68ED0050D52B4D6E6B26436E63AB
:109F00009E082A4DB6007519AC46AD689E07360FFF
:109F10000F27B740BD4305273F07B84201D10027AF
:109F20001AE0234FB84201D1012715E0214FB84272
:109F300002D1022710E030E01F4FB84201D10327C1
:109F40000AE01E4FB84201D1042705E01C4FB84279
:109F500001D1052700E00627B7402F436546AF60D3
:109F6000184D2E684F689643FF0300D516432E60A8
:109F70006E684F689643BF0300D516436E60AE68A7
:109F80004F689643FF0200D51643AE60EE684F68F7
:109F90009643BF0200D51643EE605B1C0A68154667
:109FA000DA4000D052E7FCBD001002400000014042
:109FB0000004005000080050000C00500010005039
:109FC000001C0050000401400069084000D001203E
:109FD0007047426913460B401B0491430B43836156
:109FE0007047002A01D0816170478162704700008C
:109FF00001488068704700001002002070B504001E
:10A000000FD021681348086021681348086003CC0A
:10A0100041602068083C21688860FFF7E9FF054639
:10A0200008E0012070BDFFF7E3FF401B292801D99C
:10A03000032070BD2068C0680028F4D12068026940
:10A04000E1688A4201D0016101E004490160002019
:10A0500070BD0000CCCC000055550000AAAA00003D
:10A06000006802490160002070470000AAAA0000B1
:10A0700002488168027889188160704710020020C8
:10A0800010B50848002401684022114301602046B1
:10A0900000F00AF8002801D0012401E000F026F8C1
:10A0A000204610BD0020024070B504460D4D7D20B5
:10A0B0002978C000FDF71CFC01460B480068FDF73D
:10A0C00017FC01F00FF8002809D1042C07D2002258
:10A0D0002146401E00F022F800206C6070BD012077
:10A0E00070BD0000100200201C0200200448416BDB
:10A0F000012211434163816B020411438163704764
:10A1000000100240002805DBC106C90E012088406E
:10A11000014908607047000000E100E010B507F059
:10A1200039FB10BD024801680215114301607047F8
:10A1300000700040024801684215114301607047F9
:10A1400000700040024801688215114301607047A9
:10A1500000700040F0B5154A1368154D54152D6A6E
:10A160002340ED07ED0F002B04D0002D02D0166820
:10A17000A64316601668B608B600064316600D487A
:10A18000076904263743076101290DD040BF20BF6E
:10A1900020BF0169B1430161002B04D0002D02D022
:10A1A000106820431060F0BD30BFF2E7007000403F
:10A1B0000000014000ED00E0F8B5044600780027FB
:10A1C0005D4D800671D55C4E403EB06BC00004D43E
:10A1D000B06BA9050843B063012758480168C90559
:10A1E00011D40168821511430160FFF701FF00904F
:10A1F00005E0FFF7FDFE0099401A642837D84F4864
:10A200000068C005F5D532680321090560680A4079
:10A210000140914208D08103890F032904D131689C
:10A22000890301D50120F8BD2A69032109040A40E8
:10A2300022D0084090421FD0207880061CD5286983
:10A240002A6988430121C9040A432A612A698A4389
:10A250002A612861C0050FD5FFF7CAFE009008E00B
:10A26000FFF7C6FE0099411A3548814201D9032003
:10A27000F8BD28698005F3D561688803800F03283D
:10A2800005D132680005824301400A4332602869E3
:10A29000032261681204114008432861002F04D092
:10A2A000B06B012109078843B0632078C00705D04F
:10A2B000E868A168800880000843E860207880078B
:10A2C00005D5E8680C218843E1680843E8602078F8
:10A2D000400706D5E86803218902884321690843BD
:10A2E000E8602078000706D5E86803210903884361
:10A2F00061690843E8602088C00506D5E868032145
:10A3000009048843A1690843E8602078400606D51F
:10A31000E868012189068843216A0843E8602078BB
:10A32000000606D5E868032189048843E1690843EB
:10A33000E8600020F8BD00004010024000700040BE
:10A3400088130000F8B50E46050038D05E48006856
:10A35000C007C00FB04214D25B4C206840084000D8
:10A3600030432060FFF744FE074605E0FFF740FE5C
:10A37000C11B564881427AD82068C007C00FB0423E
:10A38000F4D12878524C800705D5E068F021884345
:10A39000A9680843E0602878C00752D0686802289E
:10A3A00006D0032807D0216801280AD0890504E0D7
:10A3B0002168890301E021688901002903DB01206C
:10A3C000F8BD4907F9E7E168890889000143E160C0
:10A3D000FFF70EFE0746686802280AD0032814D04B
:10A3E00001281ED029E0FFF703FEC11B3748814238
:10A3F0003DD8E0680007800F0228F4D121E0FFF784
:10A40000F7FDC11B3148814231D8E0680007800F59
:10A410000328F4D115E0FFF7EBFDC11B2B48814267
:10A4200025D8E0680007800F0128F4D109E0FFF784
:10A43000DFFDC11B2548814219D8E0680007800F65
:10A44000F5D121480168C907C90FB14217D9016880
:10A450004908490031430160FFF7CAFD074608E09B
:10A4600005E0FFF7C5FDC11B1848814201D9032053
:10A47000F8BD15480068C007C00FB042F1D1287878
:10A48000400706D5E068072109028843E9680843C8
:10A49000E0602878000707D5E0680721C9028843F3
:10A4A0002969C9000843E06000F03AF8E168094A08
:10A4B0000906090F515CC840074908600748006851
:10A4C000FFF7F2FDF8BD00000020024088130000F5
:10A4D00000100240281602081C020020140200206E
:10A4E000044805490068C968044A4905490F515C98
:10A4F000C84070471C0200200010024041160208AC
:10A50000044805490068C968044A8904490F515C38
:10A51000C84070471C02002000100240411602088B
:10A5200070B51A4AD3681A490C2018408D000428C7
:10A530000CD04E00082810D00C2810D05068000411
:10A54000410F0120C003491C884070BD1068C0063F
:10A5500001D5084670BD284670BD304670BD9802D2
:10A560000C4C000F205C1B029C0FD368641CDB03A7
:10A5700001D5314603E01268D20600D4294607F01F
:10A58000E4F822460023FDF7DDF970BD001002401B
:10A5900000093D0038160208FEB505007ED0F74CD4
:10A5A000E7680C20E6680740012000040640287890
:10A5B000C00747D0082F05D00C2F0AD10120000476
:10A5C000864206D1206880033CD568680028E5D023
:10A5D00038E0012069680004814203D12168014309
:10A5E000216011E0052301221B0492049942216895
:10A5F00002D111432160F1E78143216021680140CC
:10A600000091206890432060686800280DD0FFF713
:10A61000EFFC009005E0FFF7EBFC0099401A64287E
:10A620007ED820688003F6D50CE0FFF7E1FC0090AF
:10A6300005E0FFF7DDFC0099401A6428F0D8206897
:10A640008003F6D4287880075DD5E868810604D5B4
:10A65000226820210A43226088430923042F0DD059
:10A660000C2F01D1002E09D000283CD0216899433D
:10A6700001432160FFF7BCFC064628E0216849073A
:10A6800001D500288AD061681F22120291432A69ED
:10A690001202114361602168994300E0C7E1014360
:10A6A0002160FFF73DFFE16809060A0FB449895CA4
:10A6B000C840B4490860B4480068FFF7F5FC0028BA
:10A6C00074D120E0FFF794FC801B0228A8D82068F2
:10A6D0004007F7D560681F210902884329690902EC
:10A6E000084360600FE02068400840002060FFF7EA
:10A6F0007FFC064604E0FFF77BFC801B02288FD816
:10A7000020684007F7D42878C00661D5002F0DD007
:10A71000E86900284BD02068FF210131084300E0A0
:10A72000EAE02060FFF764FC06462DE02068800523
:10A7300002D5E8690028A5D060680721490388434D
:10A74000696A084360606068298C0002000A090693
:10A7500008436060686A410B0120C003491C8840BF
:10A76000E16809060A0F8649895CC8408549086086
:10A7700085480068FFF798FC002817D128E0FFF70C
:10A7800037FC801B0228A1D820688005F7D56068B7
:10A79000072149038843696A084360606068298C1F
:10A7A0000002000A09060843606011E025E1216803
:10A7B000FF20013081432160FFF71AFC064604E0C8
:10A7C000FFF716FC801B022899D820688005F7D473
:10A7D00028786E4E000724D568690028306910D0AB
:10A7E000012108433061FFF703FC009005E0FFF70B
:10A7F000FFFB0099401A02287ED830698007F6D501
:10A800000FE0400840003061FFF7F2FB009005E0E8
:10A81000FFF7EEFB0099401A02286DD830698007D7
:10A82000F6D42878400764D500200290A06BC000C1
:10A8300006D4A06B012109070843A0630120029000
:10A8400053480168C90511D401688215114301609C
:10A85000FFF7CEFB009005E0FFF7CAFB0099401A16
:10A86000642849D84A480068C005F5D5FF20AA6881
:10A870000130824203D131690143316111E001218C
:10A880008902002A07D005231B029A4203D13269AC
:10A890000A433261EFE732698243326130698843AB
:10A8A0003061A86800280ED0FFF7A2FB009006E0F8
:10A8B000FFF79EFB0099411A364881421CD8306947
:10A8C0008005F5D50DE0FFF793FB009006E0FFF75C
:10A8D0008FFB0099411A2F4881420DD830698005BD
:10A8E000F5D40298002804D0A16B01200007814311
:10A8F000A1632878800600E07EE02ED52648A9696D
:10A900004314002916D0A26801210A43A260626B99
:10A910000A436263016A19430162FFF769FB064655
:10A9200004E0FFF765FB801B022865D8A06880075C
:10A93000F7D512E0A16849084900A160016A99436E
:10A940000162FFF755FB064604E0FFF751FB801B51
:10A95000022851D8A0688007F7D4A86A002868D0D8
:10A960000C2F4FD0012636060228206816D0B0439F
:10A970002060FFF73DFB054640E00000001002406C
:10A98000281602081C020020140200204010024079
:10A99000007000408813000000000140B0432060B8
:10A9A000FFF726FB074604E0FFF722FBC01B022847
:10A9B00022D820688001F7D4296BE86AE26808434E
:10A9C000696BFD231B049A4311430843E060206830
:10A9D00030432060FFF70CFB054604E0FFF708FB5F
:10A9E000401B022808D820688001F7D521E0FFF736
:10A9F000FFFA401B022801D90320FEBD2068800118
:10AA0000F5D416E00128F8D0E06801210904EA6ACB
:10AA1000014091420BD10F2189042A6B01409142E0
:10AA200005D1032189050840696B884201D00120C6
:10AA3000FEBD0020FEBD7047006889005030081838
:10AA4000006870470068890050300818026070473D
:10AA500030B5014620310A78012A15D001220A704A
:10AA600002234B700468CA23636204685323636241
:10AA700003689C6820252C439C600068FF23436288
:10AA80004A700020087030BD022030BD10B505F0BE
:10AA900031FF10BD70B50446006881688025C90487
:10AAA00000290BDAC068C00508D52046FFF7EEFF85
:10AAB0002168C8682840FF388238C86020688168EB
:10AAC00089040BD5C068800508D52046FFF7B3FF81
:10AAD0002068C168054A29408918C16001200449DD
:10AAE0004004486101202034607070BD7FFDFFFF8D
:10AAF00000040140F8B505460446203528780128B1
:10AB00001DD001202870022068702268CA2050627F
:10AB1000226853205062FF2001300026FF27814227
:10AB20001CD121688A6882438A602068816801227A
:10AB3000120391438160FFF75BFA009009E0022065
:10AB4000F8BDFFF755FA0099411A7D20C0008142F7
:10AB50001BD82068C068C007F3D020E02068816857
:10AB60000122520291438160206881681201914361
:10AB70008160FFF73DFA00900DE0FFF739FA009988
:10AB8000411A7D20C000814205D920684762032018
:10AB900068702E70F8BD2068C0688007EDD5206809
:10ABA0004762012068702E700020F8BD10B5006863
:10ABB0000B464068C021C94301400002000ECC048E
:10ABC000D870E40E5C708C06A40E0904490F9C70CA
:10ABD0001970002A0AD105F063F8D870587805F08A
:10ABE0005FF85870987805F05BF89870002010BDF9
:10ABF00030B50B460168896A5960016809694904E2
:10AC0000490C9960006804680F4821460140880299
:10AC10004D04800E18706D0E49065D70490E9970D6
:10AC20006102490E40242140D970002A0AD105F062
:10AC300037F81870587805F033F85870987805F0A0
:10AC40002FF89870002030BD7F7F7F00F8B504009A
:10AC500050D0254620356878002803D1287020463A
:10AC600000F052F8022068702168CA20486221680A
:10AC700053204862204605F027F8FF2604270028C5
:10AC8000206802D046626F7034E081681D4A11402E
:10AC90008160216888686268A369104322691A4349
:10ACA000104388602168E068086120680169228992
:10ACB0001204114301612068C16880229143C16080
:10ACC0002068C16C89088900C164E1696069014339
:10ACD0002068C26C1143C1642068806880060BD470
:10ACE000204600F0DDF9002806D0206846626F702B
:10ACF000002028700120F8BD20684662012068709D
:10AD00000020F8BDBFFF8FFF00B597B00420009072
:10AD100000200A90FF20013002906846FFF73CFCBB
:10AD2000002801D0FEF76AF920200E90C0020F9093
:10AD30000EA8FFF741FA002801D0FEF75FF9084896
:10AD4000016901229204114301610022114602208F
:10AD5000FFF7E4F90220FFF7D5F917B000BD0000B6
:10AD600040100240FEB506460446203630780B46B9
:10AD700001283ED00120307002207070184620302B
:10AD80000090206800278068002A34D0400600D454
:10AD9000DF7019789D7809040D435978DA78090233
:10ADA000120411430D430099D869097809060D432F
:10ADB000054358699969054358680843009021681C
:10ADC000CA204862216853204862FF205A6A013035
:10ADD0008021824245D12268936883439360206832
:10ADE000C2680A40FF3A823AC260FFF701F9019057
:10ADF00024E00220FEBD400600D4DF70187804F085
:10AE000057FF0504587804F053FF00020543987873
:10AE100004F04EFF0543D8780004054300980078FD
:10AE200004F046FF00060543D869C1E7FFF7E0F8E4
:10AE30000199411A7D20C00081422AD82068C0684B
:10AE4000C007F3D02068C561216800984864206875
:10AE50008168FF22013211438160206881681201FC
:10AE600030E02068826801235B029A438260206898
:10AE7000C2680A401D495118C160FFF7B9F8019036
:10AE80000EE0FFF7B5F80199411A7D20C00081421C
:10AE900006D92168FF204862032070703770FEBD1C
:10AEA0002068C0688007ECD520680562216800989A
:10AEB0008864206881680122520211438160206801
:10AEC0008168120111438160094802680121490427
:10AED0000A43026082680A4382602168FF20486258
:10AEE0000120707037700020FEBD00007FFDFFFF65
:10AEF00000040140F8B505460446203528780B4685
:10AF000001280FD00120287002206870002A0BD081
:10AF1000D8789E78000406435878097800024903DF
:10AF2000084317E00220F8BD5878C10603D5EF2189
:10AF300008400A305870D87804F0BAFE06045878F1
:10AF400004F0B6FE00020643987804F0B1FE064312
:10AF50001878400306432168CA20486221685320BC
:10AF60004862204604F0B0FE0027002811D11148A5
:10AF70000640206846602068C16880229143C16015
:10AF80002068806880060CD4204600F089F80028EC
:10AF900007D02168FF204862042068702F700120CC
:10AFA000F8BD2168FF204862012068702F700020E2
:10AFB000F8BD00003FFFFF00F8B506460446203606
:10AFC00030780D46012822D00120307002207070A8
:10AFD000206800278068002A1BD0400600D4EF704C
:10AFE0002978A878090408436978EA7809021204E4
:10AFF0001143084300902168CA2048622168532009
:10B000004862204604F060FE002837D116E0022096
:10B01000F8BD400600D4EF70287804F049FE030420
:10B02000687804F045FE00020343A87804F040FE6F
:10B030000343E878000403430093DCE717490098D2
:10B0400008402168086020688168012292049143C9
:10B0500081602969E868084321688A68104388602C
:10B060002068C16880229143C160206880688006A2
:10B070000CD4204600F014F8002807D02168FF20E7
:10B0800048620420707037700120F8BD2168FF20ED
:10B0900048620120707037700020F8BD7F7F7F000C
:10B0A00070B504460068C168A0229143C160FEF7F4
:10B0B0009FFF7D260546F60006E0FEF799FF401B40
:10B0C000B04201D9032070BD2068C0688006F4D565
:10B0D000002070BD024801690222114301617047DE
:10B0E00000E000E0094910B5401E884201D9012066
:10B0F00010BD074C60610321081F06F04BFB0020C8
:10B10000A06107202061002010BD0000FFFFFF00AC
:10B1100000E000E0024801690222914301617047AA
:10B1200000E000E0014660310A7D012A09D00122D9
:10B130000A750068026802231A430260002008753D
:10B140007047022070477047FEB5054604466035DB
:10B15000287D00269446012811D001232B75242038
:10B16000A067206802689A4302602768B8680322D3
:10B17000120590430843B860002902D015E0022070
:10B18000FEBD604600910190206841681022914305
:10B190006A46928811434160206841686A46090204
:10B1A0009279090A12061143416020680168194327
:10B1B0000160FEF71DFF09490091034601210022AD
:10B1C0008905204605F034FF002801D0032601E060
:10B1D0002020A067002028753046FEBDFFFFFF013C
:10B1E000704700000C4A10B50021904206D110466D
:10B1F0006030017501220949603809E0084A90422F
:10B2000008D110466030017504490122493960387F
:10B2100000F0C2F910BD0000F0050020640000201D
:10B2200074060020F8B502680446D0691168966873
:10B23000814B05461D402023002D6CD0F7077F4D24
:10B24000FF0FBC460D402F4379D02546C7078035F8
:10B25000002F06D0CF0504D5012717622A683A438C
:10B260002A60820708D5F20706D0276802223A62D0
:10B270002A6804273A432A60420708D5F20706D015
:10B280002668042232622A68022632432A600207B4
:10B290000AD50A461A406646324305D02668082277
:10B2A00032622E6816432E60020508D54A0106D583
:10B2B00001222668D20232622A681A432A602A686A
:10B2C000002A30D0800606D5880604D5616E002994
:10B2D00001D020468847286821688968490602D439
:10B2E0002821084225D0204605F0B5FC2068816859
:10B2F000490619D5826840218A438260206F002860
:10B3000012D04F498163206FFEF7F6FA00280AD069
:10B31000206F816B06E0850611D58D060FD5616E15
:10B3200077E020468847F8BD2046FFF75BFFF8BD71
:10B3300005E02046FFF756FF00202860F7E7256E5E
:10B34000012D56D1C50654D5CD0652D5102616620C
:10B350002068816825464906403500292ADA226F8F
:10B36000116849680904090CE1D02F8B8F42DED99E
:10B37000698311680968890617D40168320191430D
:10B3800001602068816849084900816020688168FF
:10B39000402291438160E3670020206620680168B5
:10B3A000B1430160206FFEF785FA288B698B401A44
:10B3B00081B21AE0298B6A8B891A6A8B89B2002ABA
:10B3C000B5D00029B3D00268FF252135AA43026019
:10B3D00020688268520852008260E367002020667D
:10B3E000606620680268B24302602046FFF7ABFE49
:10B3F0009DE7C50208D5750206D50120000510623B
:10B400002046FFF7EDFE92E7050605D50D0603D5AC
:10B41000A16E002985D18AE7400688D5480686D5E1
:10B42000116820464024A143116083670021816692
:10B4300000F0F8F97BE700000F080000200100048D
:10B44000BD0B010810B5040003D0A06F002802D086
:10B4500007E0012010BD002174200155204600F0B6
:10B4600027F82420A0672068016849084900016086
:10B47000204605F087FC0128ECD0606A002802D045
:10B48000204605F003FB206841680922D20291435F
:10B490004160206881682A229143816020680168A8
:10B4A000012211430160204605F056FB10BD00004B
:10B4B000F0B587B0064614216846FCF724FB304FF0
:10B4C000346800252F49022001220323BC4232D1D7
:10B4D0008C6B47043C438C63CC6A0443CC62C96ADE
:10B4E00001AC01400591990200910DC40720049020
:10B4F00069462548FEF7A6FC254C24482060052017
:10B5000060601020E560A0606561A5618020E56154
:10B510002061800120622046FEF768FA002801D0F1
:10B52000FDF76CFDF466002201211D20A662FEF7E6
:10B53000F5FD1D2020E0174EB4421FD18C6B012673
:10B54000760434438C63CC6A1443CC62C96A01909C
:10B55000C907C90F059104200C2104900091052012
:10B560000295039369460007FEF76CFC0022022156
:10B570001C20FEF7D3FD1C20FEF7C4FD07B0F0BD74
:10B580000048004000100240000400501C0002402F
:10B59000F80600200044004030B5C36F202B27D1AF
:10B5A00000290BD0002A09D0012483682403A34278
:10B5B00006D10369002B03D1CB0701D0012030BD98
:10B5C000034660331C7D012C12D001241C7500231E
:10B5D0000366084C0368A34207D05C68240204D5C4
:10B5E0001C680125AD062C431C6005F0D5FC30BD60
:10B5F000022030BD0048004070B523490123234A92
:10B6000088422AD1507901280FD021491046643050
:10B610000E8E4D6B0478AC550C8E641C0C86044663
:10B62000443C2478582C03D010E004F01FF80FE0BD
:10B63000184C2478002C09D1C978072906D0417804
:10B640000D2903D101780A2900D15377017841707F
:10B650000E49012264310C4813E00F49884212D18F
:10B660000A4C0E4D4034E188D07E6854491CE1807C
:10B670000D2801D00A2800D11377044901221B317B
:10B680000548FFF789FF70BDF0050020000000208D
:10B69000D0010020A3010020740600202C0200200D
:10B6A000FFB50446806F83B017460D4620285ED153
:10B6B000002D0AD0002F08D0A168C001814207D117
:10B6C0002069002804D1E80702D0012007B0F0BDAE
:10B6D000204660300090007D012848D0009801216C
:10B6E00001750020802108512120A067FEF780FC11
:10B6F000264640360190378277820120A1680003F8
:10B70000814202D12069002805D02F4600250099EA
:10B710000020087511E00027F9E70022802120466B
:10B7200005F086FC002815D1002F15D02168387847
:10B7300088627F1C708A401E7082708A019B00287C
:10B7400006980090E9D100224021204605F070FCC7
:10B75000002808D00320B9E728882168C005C00D5B
:10B760008862AD1CE6E72020A0670020AEE702203B
:10B77000ACE70000F8B50446806F20284AD10029C4
:10B780000BD0002A09D00123A0681B03984206D1E0
:10B790002069002803D1C80701D00120F8BD254643
:10B7A0006035287D012835D001202875204640309D
:10B7B000E164028242820026274680373E602120D3
:10B7C000A067E06E00281AD01349C162E16E1348E9
:10B7D0000863E16E12484863E06E13468663206892
:10B7E000E16C283084466246E06EFEF747F9002897
:10B7F00005D0102038602E752020A067CDE7216885
:10B80000402008622E752068816880221143816083
:10B810000020F8BD0220F8BD1D0C01084D0C0108E8
:10B82000D10B0108704770477CB506461A4841683D
:10B83000C9430907FBD4194C606B65152843606345
:10B8400000211748FDF712FE164800901648019097
:10B8500069461348FDF760FEA01401906946009602
:10B860000F48FDF759FE0E48FDF7F6FF0021C943CA
:10B870000B48FDF791FF0A48FDF798FE084980B292
:10B880000A689368022633439360096803220A60BA
:10B89000616BA94361637CBD0070004000100240F1
:10B8A00084050020FFFF07000110000070B5174954
:10B8B00004464A6A08698018000EE0714A6A0869FD
:10B8C0008018000CA071088A8A8C8018000A6071A8
:10B8D000087C8A8C801820714869000EE0704869E5
:10B8E000000CA070888A000A6070087D2070052511
:10B8F000625D07A1084805F0FDFE074908461438B7
:10B90000FCF70CF96D1C082DF2DB70BD4000F81F30
:10B9100025303278000000006C04002070B50C4621
:10B92000054600210448FFF787F8286001210248F6
:10B93000FFF782F8206070BD4007002010B50C466C
:10B94000024600210448FFF77DF822460121024803
:10B95000FFF778F810BD00004007002030B587B031
:10B960000546694605A800F00BF8840A890580059C
:10B970000C43800D00F0E0F92880204607B030BD70
:10B9800070B505460C4600222248FFF731F9002227
:10B99000294620486668FFF709F9002221461D481C
:10B9A000FFF726F96068B042F1D1E8781A4A0146FB
:10B9B0005043C01C8308880729D0184869783D2265
:10B9C0000E4651430A463C3A7100891EC840D10FC9
:10B9D00080078918800F4910081AC018A978401EDE
:10B9E00008180F493C2248436178E12351432278EB
:10B9F0001B015A438918A27810180818810D830278
:10BA00006068084C0022201A1818514170BD064881
:10BA1000D4E7000040070020B5050000A0AA990067
:10BA200080510100FF03000050554400032070477F
:10BA300001480068704700008C07002000B587B0FF
:10BA4000694605A8FFF79CFF0249096807B0401A3C
:10BA500000BD00008C07002000B587B0694605A82E
:10BA6000FFF78EFF07B000BD10B5084C2078002806
:10BA70000AD100F04DF8FF2101310548FFF73AF8EF
:10BA800000F0ACF80120207010BD000088000020FC
:10BA90004007002010B50D4C0021042000F01AFBD7
:10BAA00001200B494004486121688868C0040BD517
:10BAB000C868C00508D5C86880221040FF388238A1
:10BAC000C8602046FEF7E2FF10BD000040070020DE
:10BAD0000004014070B50446FFF7B0FF211A0B4D7A
:10BAE0000220285EC01C814201D9002100E0012112
:10BAF000042000F0EFFA00F0D9FA012802D1022068
:10BB0000285E241A204600F075F870BD88000020D9
:10BB100030B52E492E4891B0002412C01F2101607B
:10BB2000846004612B49446141600838FFF78EF856
:10BB300000212748FEF780FF012500281CD1684618
:10BB4000C470457085700570002269462048FFF773
:10BB5000D1F90B940C940F9400220BA91C480E945D
:10BB6000FFF72AFA1C4A00211948FEF76BFF002252
:10BB700001211748FEF766FF1548FEF769FF2821E7
:10BB800001A8FBF7C0FF684604714471032181716D
:10BB90000294049405940694079408A808940571E7
:10BBA000FF2001300A90012201A90948FFF7DAF8C5
:10BBB000052168468171012040020A90012201A9F5
:10BBC0000348FFF7CFF811B030BD00000028004057
:10BBD00040070020FF0300008000926510B5044C70
:10BBE0002046211D1830FFF7CBFE206010BD00005D
:10BBF0008C070020F0B587B0044614223F4901A805
:10BC0000FBF768FF3D485038406E009000F07EF82A
:10BC10003B4802993B4A401AA105890D081887B292
:10BC2000A10A68468078534202E08918401C80B21D
:10BC30009942FAD26A461579E122120102E0891A84
:10BC40006D1CADB29142FAD26A46547902E0641C8E
:10BC5000A4B23C393C29FAD2927951188EB2012112
:10BC6000890203E07A1A761C97B2B6B28F42F9D2F3
:10BC700003E03C3E641CB6B2A4B23C2EF9D203E011
:10BC80003C3C6D1CA4B2ADB23C2CF9D203E0183D93
:10BC9000401CADB280B2182DF9D26946C978890727
:10BCA00069464A7827D01849491E515C814202D220
:10BCB000FBF71EFE08461249CA1B10492C394A6080
:10BCC000052252068A618E704C700A460D70203231
:10BCD00010706846C079C8700020C861FF224861B2
:10BCE0000132C8604A620861024608462438FFF7FC
:10BCF00039F807B0F0BD04490C31D5E790070020B2
:10BD0000FF03000080AEFEFFC4E4010810B5FF2170
:10BD100001310748FEF7EEFE05480168C868802239
:10BD20001040FF388238C86002499002486110BD57
:10BD3000400700200004014010B57D2105F005FDFD
:10BD40004906C009084310BD10B5410EC0017D224F
:10BD50000023FBF7F7FD10BDFEE7000008B50B4818
:10BD6000C26A02210A43C262C06A084000900848C1
:10BD700011214160002181600321C160C021016067
:10BD800001460448FEF75EF808BD000000100240BE
:10BD90005C1E00200004005010B50E4C0022402113
:10BDA0002046FEF71EF904F099F900228021204672
:10BDB000FEF717F900F010F8012240212046FEF7A7
:10BDC00010F900F009F8002240212046FEF709F999
:10BDD00010BD00000004005008B50E200090401E69
:10BDE0000090FCD108BD000010B50E4C002240218F
:10BDF0002046FEF7F6F804F071F901228021204672
:10BE0000FEF7EFF8FFF7E8FF012240212046FEF79A
:10BE1000E8F8FFF7E1FF002240212046FEF7E1F8B5
:10BE200010BD000000040050F8B5074604F03AF9D0
:10BE30000024134E25466006040E002240213046A1
:10BE4000FEF7CFF8FFF7C8FF012240213046FEF78A
:10BE5000C8F880213046FEF7B7F8002801D0641CEE
:10BE6000E4B2FFF7B9FF6D1CEDB2082DE3D3002F4C
:10BE700003D0FFF791FF2046F8BDFFF7B5FFFAE7C3
:10BE80000004005070B515460C46064600F058F800
:10BE90007600F0B200F022F800F094F8002803D009
:10BEA00000F070F8012070BD00F04AF8761CF0B286
:10BEB00000F014F800F086F808E0012C0CD0012006
:10BEC000FFF7B2FF641E2870E4B26D1C002CF4D1A1
:10BED00000F058F8002070BD0020F1E770B505466D
:10BEE00004F0FCF8154E002240213046FEF779F8A8
:10BEF0000024280601D5012200E0002280213046DE
:10BF0000FEF76FF8FFF768FF012240213046FEF789
:10BF100068F8FFF761FF002240213046FEF761F824
:10BF2000012280213046FEF75CF86806050EFFF717
:10BF300053FF641CE4B2082CDBD370BD0004005036
:10BF400010B504F0CBF80E4C012280212046FEF7FC
:10BF500048F8012240212046FEF743F8FFF73CFF56
:10BF6000002280212046FEF73CF8FFF735FF002233
:10BF700040212046FEF735F8FFF72EFF10BD0000E8
:10BF80000004005010B504F0A9F80D4C0022402127
:10BF90002046FEF726F8002280212046FEF721F8F1
:10BFA000FFF71AFF012240212046FEF71AF801226E
:10BFB00080212046FEF715F8FFF70EFF10BD0000A8
:10BFC0000004005070B5002404F06CF8134D0122F9
:10BFD00080212846FEF705F8FFF7FEFE01224021EA
:10BFE0002846FDF7FEFFFFF7F7FE07E0641CE4B20A
:10BFF000FA2C03D9FFF7C6FF012070BD8021284627
:10C00000FDF7E2FF0028F1D1002240212846FDF78C
:10C01000E8FFFFF7E1FE002070BD000000040050C3
:10C0200070B50E460446FFF78BFF6006000EFFF763
:10C0300055FFFFF7C7FF0124094D002806D1304600
:10C04000FFF74CFFFFF7BEFF002804D0FFF79AFF71
:10C050006C70012070BDFFF795FF002070BD0000DF
:10C060009801002070B50546FFF754F80D4CA06B01
:10C0700021040843A063FEF75DF8FEF753F8E0687B
:10C080000121C9030843E060074801680422114305
:10C09000016001210846FEF75DF8A847FFF71AF88E
:10C0A00070BD00000010024000700040EFF31081EE
:10C0B00072B607480268002A01D0002005E04068F7
:10C0C000002801D0012000E0022081F31088704791
:10C0D0008C00002010B5EFF3108272B6064B0029D9
:10C0E0001C6803D0012903D1044300E084431C6091
:10C0F00082F3108810BD00008C00002010B50649A6
:10C10000064804F0E1FB0649044804F045FC0348F6
:10C1100004F054FC10BD00003DF800089404002019
:10C1200060EA0000F0B58FB00F460646FFF716FE36
:10C1300006200B908B200890AB20BC4C0C90002F5D
:10C1400075D002AD032F70D028460C300D90022F11
:10C150006CD0002720780B99FFF762FF0A20FDF7CB
:10C16000C1FC20780899FFF75BFF5020FDF7BAFC6F
:10C1700001AA02212078FFF785FE684600790102B6
:10C18000684640790818790068520A20FDF7AAFC31
:10C190007F1CFFB2062FDDD302A8FCF796FC4004FB
:10C1A000400C69460884FBF7B1FF0022A04BFBF767
:10C1B00091FE0222D243FBF76DFF00229D4BFBF75D
:10C1C000F1FE9D4A9D4BFBF785FE9D4A9D4BFBF77B
:10C1D000E9FEFBF7F5FF70605020FDF783FC0027B8
:10C1E00020780B99FFF71CFF0A20FDF77BFC2078D5
:10C1F0000C99FFF715FF5020FDF774FC6A460221E9
:10C200002078FFF73FFE68460078010268464078D4
:10C2100008187900491988810A20FDF763FC7F1C02
:10C22000FFB2062FDCD3BCE001E02BE095E02078E4
:10C230000B99FFF7F5FE0A20FDF754FC20780899CA
:10C24000FFF7EEFE5020FDF74DFC01AA02212078F9
:10C25000FFF718FE5020FDF745FC20780B99FFF7FB
:10C26000DFFE0A20FDF73EFC20780C99FFF7D8FE90
:10C270005020FDF737FC6A4602212078FFF702FEC6
:10C280000FB0F0BD002720780B99FFF7C9FE0A20F8
:10C29000FDF728FC20780899FFF7C2FE5020FDF733
:10C2A00021FC01AA02212078FFF7ECFD6846007905
:10C2B0000102684640790818790068520A20FDF7A3
:10C2C00011FC7F1CFFB2062FDDD302A8FCF7FDFB9B
:10C2D0004004400C69460884FBF718FF0022544BC9
:10C2E000FBF7F8FD0222D243FBF7D4FE0022514BAC
:10C2F000FBF758FE504A514BFBF7ECFD504A514BAF
:10C30000FBF750FEFBF75CFF70605020FDF7EAFB87
:10C31000002620780B99FFF783FE0A20FDF7E2FB49
:10C3200020780C99FFF77CFE5020FDF7DBFB6A4676
:10C3300002212078FFF7A6FD6846007801026846D2
:10C34000407808187100491988810A20FDF7CAFB56
:10C35000761CF6B2062EDCD392E7002720780B99E4
:10C36000FFF75EFE0A20FDF7BDFB20780C99FFF772
:10C3700057FE5020FDF7B6FB6A4602212078FFF7F2
:10C3800081FD684600780102684640780818790007
:10C39000491988810A20FDF7A5FB7F1CFFB2062FF3
:10C3A000DCD30D98FCF791FB45046D0C6846458481
:10C3B00023D06068FBF7F0FE04460F462846FBF7E3
:10C3C000A5FE00221A4BFBF785FD0222D243FBF7A4
:10C3D00061FE0022174BFBF7E5FD00221A4BFBF72D
:10C3E00079FD0022194BFBF7DDFD22463B46FBF7AA
:10C3F00071FDFBF7E5FE306042E72846FBF786FE5D
:10C4000000220B4BFBF766FD0222D243FBF742FEF4
:10C410000022084BFBF7C6FD00220B4BFBF75AFD31
:10C4200000220A4BFBF7BEFDE3E700009801002065
:10C4300000404F4080842E41A4703D0AD79378403D
:10C44000EC51B81E85EB094000408F4000002840A9
:10C4500010B512481049016000210122D207C163C2
:10C460004260C1610122816142630723816083636D
:10C47000026102462032C160117051700423436191
:10C48000816207481173416B4215114341630348B0
:10C49000FDF790F810BD0000002401408405002045
:10C4A0000010024008B50848016B012211430163E6
:10C4B000006B10400022009011460A20FDF72EFE6E
:10C4C0000A20FDF71FFE08BD00100240F0B54D48E0
:10C4D0009FB0C16A80263143C162C16A31401E915A
:10C4E000C26A04210A43C262C26A0A401E92C16A39
:10C4F00001252943C162C16A29401E91C26A0221F5
:10C500000A43C262C06A08401E9014216846FBF7C5
:10C51000FAFA3D4800900327002405206946019758
:10C5200002940007FDF78EFC384800906946019799
:10C5300002943748FDF786FC142114A8FBF7E3FAB0
:10C5400034481590052014A9149616940007FDF799
:10C5500079FC142105A8FBF7D6FA0720000305A9EA
:10C560000897079421C12A480839FDF76BFC00227F
:10C5700029032748FDF735FD6E0300223146244884
:10C58000FDF72FFD0022A9032148FDF72AFD142104
:10C590000AA8FBF7B8FA0AA91F480D970A960B9547
:10C5A0000C94FDF74FFC012231461B48FDF719FDA5
:10C5B000142119A8FBF7A7FA7803199005201A94FB
:10C5C00019A91B940007FDF73DFC14210FA8FBF7E8
:10C5D0009AFA1194114C0F950FA9129710952046B5
:10C5E000FDF730FC012211462046FDF7FAFC00223F
:10C5F00002210720FDF792FD0720FDF783FD1FB004
:10C60000F0BD000000100240739F0000FBFF00001F
:10C61000000400500000211000080050001C0050D1
:10C6200010B5084806490160062141600649C1600D
:10C630008160FDF7E3FC002801D0FCF7DFFC10BDB2
:10C6400000300040E0050020FF0F000010B50F484B
:10C650000D490160E1214902416000218160C16012
:10C6600001610C228161426101623021416201213C
:10C67000090381634900C163FEF7E4FE002801D08D
:10C68000FCF7BCFC10BD000000480040F005002095
:10C6900010B50C480A4901604B21C90141600021D5
:10C6A0008160C16001618161C1610C2201624261EE
:10C6B0004162FEF7C7FE002801D0FCF79FFC10BDC9
:10C6C000004400407406002010B5012104464905CD
:10C6D000FEF73AFD2046FEF725FD10BDF0B50446F5
:10C6E00087B000200290F84D0120E8706B21F748D8
:10C6F00009014118227805912030F549019008463A
:10C7000020300090007D049008464030039000984F
:10C71000582600270078498C602A01D301F0FBFEDF
:10C7200053007B449B885B009F445F008500090B9E
:10C73000FB0023016901D50045015701090BD7070B
:10C740005B048201A203E303F3037F048F04A904C3
:10C75000C704E004F8049607F5071E085E0A8E0A6F
:10C760009E0AB80ADB0AFD0A220B440B5E0B650B1E
:10C770006F0B770B960BF70E130F270F090B330F69
:10C780002B0F3D0F4D0F15051207260747076807AA
:10C790007B07B40DDC0DEC0DFC0D250E110E150EF6
:10C7A0001B0E1F0E370E3F0E700E830E9F0EF810DD
:10C7B00024113911090B511146116D119011DE121E
:10C7C0002514090B090B1015841231143C144A145A
:10C7D000561488149A14A215090B7E04BD154A0834
:10C7E0006F127912EB116203B60100200CF08CFF7E
:10C7F000082809D0572604F055F80146B5A004F0E2
:10C8000069FF7D24E4000DE0BA4807700120207024
:10C8100004F048F80146B8A06BE007F0E1FE2046BE
:10C82000FDF760F90121052049030007FDF7CCFB66
:10C830000128F2D0F8E3B7480078012806D014E0C8
:10C8400007F0CEFE7D20C000FDF74CF90121052048
:10C8500049030007FDF7B8FB0128F1D0AD48007887
:10C86000012802D1AC48FDF73DF900200CF0B2FFE1
:10C87000082808D0572604F015F80146A7A004F0B0
:10C8800029FFA7A0EFE3AE48007801280DD0A1480A
:10C89000007801281DD00620207004F003F801461E
:10C8A000A8A004F017FFA8A0ECE7B1A10598FBF73A
:10C8B00041F9002801D00F2000E00E202070287AD6
:10C8C000012803D17D204001FDF70CF99C48077039
:10C8D000E3E70B20E0E700200DF01AFA21280BD047
:10C8E000222810D0232815D0572603F0DBFF01465D
:10C8F000A1A004F0EFFE9DE70320207003F0D2FF1B
:10C900000146A9A0F5E70320207003F0CBFF014604
:10C91000AEA0EEE70320207003F0C4FF0146B4A0F0
:10C92000E7E700200DF01AFA082805D0572603F093
:10C93000B9FF0146B7A0DCE70420207003F0B2FF86
:10C94000614A01464C321446BBA004F0C3FE88A1E4
:10C950005E48FBF7EFF80028CDD010215B48FBF7CD
:10C96000D2F80F2221465948FBF7B4F808F066FCCC
:10C9700060E700200DF02EFA082805D0572603F0B6
:10C9800091FF0146B4A0B4E70720207003F08AFFAE
:10C990004D4A014638321446B8A004F09BFE4B487D
:10C9A000102110300090FBF7AEF80F2221460098BE
:10C9B000FBF790F83EE700200DF038FB082807D081
:10C9C00003F070FF0146B5A004F084FE0820CEE31A
:10C9D00003F068FF0146BBA0F6E700200DF0DEFA89
:10C9E000082807D003F05EFF0146C2A004F072FEE3
:10C9F0000520ECE703F056FF0146C948F6E70020A2
:10CA00000DF032FE08280BD0572603F04BFF0146ED
:10CA1000C4A004F05FFEC4A011F0B0F80C20D6E76B
:10CA200003F040FF0146C9A004F054FEC8A0F3E79C
:10CA300026484FA1C130FBF77DF8002815D10DF035
:10CA4000F3F8082808D0572603F02CFF0146CDA0A4
:10CA500004F040FECCA006E003F024FF0146CFA086
:10CA600004F038FECEA011F089F841A10598FBF73B
:10CA700061F8002825D10E20A9E707F07DFD7D2073
:10CA8000C000FDF72FF803F00DFF0146CAA004F027
:10CA900021FECAA011F072F8012105204903000708
:10CAA000FDF792FA0028E8D001210520490300078C
:10CAB000FDF78AFA012805D1E87103F0F3FE01467B
:10CAC00088E124E28EE10000A0010020F2140020A1
:10CAD000CC0000205B25755D4E42494F54206469AF
:10CAE00064206E6F7420726573706F6E642E0D0A11
:10CAF00000000000280000205B25755D4E42494F74
:10CB0000542068617320726573706F6E6465642E63
:10CB10000D0A000014000020881300005B25755DDD
:10CB20004563686F206D6F6465207475726E65640F
:10CB3000206F6666206661696C65642E0D0A0000D0
:10CB4000130000205B25755D4563686F206D6F6481
:10CB500065207475726E6564206F666620737563F8
:10CB60006365737366756C6C792E0D0A00000000A6
:10CB70004E554C4C000000005B25755D526571758B
:10CB800065737420666F72206D616E756661637483
:10CB900075726572206D6F64656C206661696C6585
:10CBA000642E0D0A000000005B25755D4D6F646505
:10CBB0006C20696E666F726D6174696F6E3A424780
:10CBC00039352D4D312E0D0A000000005B25755DB5
:10CBD0004D6F64656C20696E666F726D6174696F0C
:10CBE0006E3A424739352D4D322E0D0A00000000B5
:10CBF0005B25755D4D6F64656C20696E666F726D47
:10CC00006174696F6E3A424739352D4D332E0D0AE6
:10CC1000000000005B25755D4661696C65642074E9
:10CC20006F207265616420494D4549206E756D62C3
:10CC300065722E0D0A0000005B25755D5468652045
:10CC4000494D4549206E756D6265722069733A25BC
:10CC5000732E0D0A000000005B25755D4661696C4E
:10CC6000656420746F207265616420494D534920CA
:10CC70006E756D6265722E0D0A0000005B25755D94
:10CC800054686520494D5349206E756D6265722068
:10CC900069733A25732E0D0A000000005B25755D4F
:10CCA0004661696C656420746F20736574207468D4
:10CCB00065204672657175656E63792062616E6488
:10CCC0002E0D0A005B25755D4672657175656E6394
:10CCD000792062616E6420636F6E66696775726148
:10CCE00074696F6E207375636365737366756C2EFC
:10CCF0000D0A00005B25755D4661696C65642074F2
:10CD00006F2073657420746865204E6574776F7248
:10CD10006B2043617465676F72792E0D0A00000005
:10CD2000642702085B25755D4661696C6564207443
:10CD30006F20736574207468652064617461206677
:10CD40006F726D61742E0D0A000000005B25755D29
:10CD500053657420746865206461746120666F7225
:10CD60006D617420666F722073656E64696E6720F2
:10CD7000616E6420726563656976696E672E0D0A5F
:10CD8000000000005B25755D4661696C6564207478
:10CD90006F207365742041504E0D0A005B25755D50
:10CDA0005365742041504E207375636365737366D9
:10CDB000756C6C790D0A00005B25755D436C6F73B3
:10CDC000696E67204E42206D6F64756C652E2E2E45
:10CDD0000D0A0000E7A004F07DFCE7A010F0CEFEF5
:10CDE000EE48077058202070ED490420C87021E5F6
:10CDF0005F202070EB480078002817D1EA480770C0
:10CE0000687C002807D00398C078002803D0E74941
:10CE10008968414301E0E54881687D20C0004143C5
:10CE2000E34803F0B9FDE24803F0C8FD687C002840
:10CE300012D09621DF48FAF766FED9482B7D42785A
:10CE4000DDA1DC4804F056FCDA4810F097FEE14919
:10CE50000878401C08706F740120A87103F022FD4F
:10CE60000146DDA004F036FCDCA010F087FEB6E041
:10CE7000012100224903E848FDF7B3F8C84903201F
:10CE8000C870E649E64803F087FDE6480078E87395
:10CE900000200DF077FA08280AD003F003FD0146C0
:10CEA000E1A004F017FCE1A010F068FE17208EE569
:10CEB0005820207003F0F6FCDA4C01462288E6A0E8
:10CEC00004F008FC9621BB48FAF71DFE2288E3A176
:10CED000B84804F00FFCB74810F050FED04803F0FB
:10CEE0006DFD03F0DFFC0146E7A004F0F3FBE7A0D3
:10CEF000C8E400200CF0AAFF082808D0572603F049
:10CF0000D1FC0146EEA004F0E5FBEEA0BAE40F2050
:10CF10005DE50F200CF0E4FF03F0C4FC0146A048DF
:10CF20004278EEA004F0D6FB287F0828287D09D09F
:10CF3000401C287558202070EF4801210170984846
:10CF4000877077E4009000280BD096219948FAF773
:10CF5000DAFDEAA19748009A04F0CCFB954810F05E
:10CF60000DFE96219348FAF7CEFD8D48DCA142785C
:10CF7000904804F0BFFB8F4810F000FEE6480078B0
:10CF800000280DD00398807B012809D1684603F062
:10CF90001BF90098E149401E4863E14901200870EF
:10CFA000287A00280BD00A2121707D4901248C7039
:10CFB000884900280F700399CF7002D005E0102136
:10CFC000F2E7D84809F07EF92C72FF20F53009F01D
:10CFD00079F9D5480770D5480770734807702F75E1
:10CFE00028E400200CF086FC082809D0572603F01E
:10CFF00059FC0146CEA004F06DFBCEA010F0BEFDA2
:10D000000098407D002801D0012801D0162004E0BE
:10D01000009800780328F9D12E202070CB480078A2
:10D0200001288ED10D20D2E4F3E300200DF09CFC0A
:10D03000082808D003F036FC0146C5A004F04AFBDE
:10D04000C4A010F09BFD1120C1E400200DF064FB92
:10D05000082809D0572603F025FC0146C7A004F094
:10D0600039FBC7A007E0D5E303F01CFC0146D1A0C3
:10D0700004F030FBD0A010F081FD1220A7E40020C6
:10D080000DF0B4FB082809D0572603F00BFC01462D
:10D09000D7A004F01FFBD7A010F070FD1320207064
:10D0A00003F000FC0146DCA004F014FBDBA010F050
:10D0B00065FD00200CF0EAFC1DE400200DF098FA5C
:10D0C000082809D0572603F0EDFB0146DDA004F047
:10D0D00001FBDDA010F052FD1420207003F0E2FBF4
:10D0E0000146E2A004F0F6FAE1A001E700200DF00D
:10D0F000FDF808280AD003F0D5FB0146E6A004F0AD
:10D10000E9FAE6A010F03AFD152060E403F0CAFB4E
:10D110000146E9A004F0DEFAE8A0F3E7F049F1489F
:10D12000FAF708FD00280CD10DF096FB08280AD06C
:10D1300003F0B8FB0146ECA004F0CCFAEBA010F031
:10D140001DFD0B2043E403F0ADFB0146EEA004F00F
:10D15000C1FAEEA0F3E700200BF05AFA082807D036
:10D160004F202070572603F09DFB0146E0E152E37B
:10D17000E1E100005B25755D4E42206D6F64756CCA
:10D180006520706F7765722D6F66662073756363B7
:10D1900065737366756C2E0D0A0000002C0000206C
:10D1A000D0010020360000202B000020CC00002001
:10D1B00080040020602100205369676E616C205359
:10D1C0007472656E6774683A2564202A25640D0AB6
:10D1D00000000000210000205B25755D5475726E13
:10D1E000206F666620746865206D6F64756C6520BD
:10D1F000726563656976696E6720616E6420736528
:10D200006E64696E672052462066756E6374696F3E
:10D210006E2E0D0A000000000008005010270000CC
:10D22000200500209E0000205B25755D474E53536E
:10D23000206661696C656420746F207475726E205D
:10D240006F6E206F7220474E5353206973207275A2
:10D250006E6E696E670D0A005B25755D53756363BD
:10D2600065737366756C6C79207475726E206F6E61
:10D2700020474E53532C4669782054696D656F756D
:10D28000743A2564730D0A005B25755D4E42206D6E
:10D290006F64756C65206973206F627461696E6973
:10D2A0006E67206C6F636174696F6E20696E666F64
:10D2B000726D6174696F6E2E2E2E0D0A00000000D3
:10D2C0005B25755D4661696C656420746F207365CC
:10D2D0007420434F50530D0A000000005B25755D1C
