:020000040800F2
:10780000503A0020D578000835E2000859BA00083F
:107810000000000000000000000000000000000068
:10782000000000000000000000000000F9E5000872
:10783000000000000000000071E5000865E6000897
:10784000E7780008E7780008E5E50008E778000831
:10785000E77800089F8C0008E7780008A98C0008EA
:10786000E7780008E7780008518C0008E7780008FE
:10787000E7780008E7780008E7780008E77800086C
:10788000E7780008E7780008E778000800000000C3
:10789000E7780008E7780008E7780008E77800084C
:1078A000E7780008E7780008E778000841F1000869
:1078B00051F1000875E5000800000000E7780008B5
:1078C0000348854600F030FE0048004705320108B5
:1078D000503A00200448804704480047FEE7FEE78E
:1078E000FEE7FEE7FEE7FEE7BDE80008C178000816
:1078F00030B50B46014600202022012409E00D4648
:10790000D5409D4205D31D469540491B25469540CF
:1079100040191546521E002DF1DC30BD70B5002413
:107920002546002801DA01244042002901DA012518
:107930004942FFF7DDFFAC4200D04042002C00D0AE
:10794000494270BDF0B51FB40646002082B005461E
:107950004024019100901BE0019922460F463046D9
:1079600000F086FB049A059B801A994110D31046BB
:107970001946224600F06CFB361A8F4101972246C9
:1079800001200021009F00F063FB38184D4100905A
:107990002046641E0028DFDC019B00982946324601
:1079A00007B0F0BDF0B51FB486B000200090019084
:1079B00002900698069980B204900798090C020478
:1079C0000014114307900027089D099806913E4630
:1079D0003C4603900398A9B20204000C039004985B
:1079E0002D0C154348430021224600F031FBC719F6
:1079F000714110340E46402CECDB3846029A00F000
:107A000027FB009A019B8018009059410298019130
:107A1000103002904028CCDB00980BB0F0BD000085
:107A2000004870479CB8010810B50446FFF7F8FFFE
:107A30000068005DC007C00F10BD014661391929FB
:107A400000D820387047000038B50446C0681821B7
:107A5000401E4843A16840183C21484361684018D3
:107A60003C2148432168451860690C21484321693D
:107A700040186921C900401A3021FFF74FFF114A11
:107A800050434219084600921A2902DB0E49511848
:107A900000910C21FFF742FF0C4A5043009A8018D6
:107AA00000900B4806E0491E425C074B5A43009B7E
:107AB000D21800920029F6DC2146684600F0EAFA66
:107AC000009838BD801F8607805101008033E10196
:107AD000A0B8010803460B439B0703D009E008C97F
:107AE000121F08C0042AFAD203E00B780370401C6E
:107AF000491C521EF9D27047D2B201E00270401CFC
:107B0000491EFBD270470022F6E710B513460A461D
:107B100004461946FFF7F0FF204610BD421E537879
:107B2000521C002BFBD10B781370491C521C002BEC
:107B3000F9D1704730B505462A460B4610781C78B7
:107B4000521C5B1C002801D0A042F7D0002C03D0AF
:107B5000002802D06D1CEFE7284630BD10B5044662
:107B600005E00B780370401C002B00D0491C521E0E
:107B7000F7D2204610BDCAB2401E4178401C8A424E
:107B800002D00029F9D100207047421C0178401C26
:107B90000029FBD1801A704710B5002200E0521C6A
:107BA000835C8C5CA34201D1002BF8D1D8B2E1B246
:107BB000401A10BD0246C9B200E0401C0378002BF9
:107BC000FBD102E003788B4203D0401E9042F9D2F1
:107BD000002070470321001D401E037812021A4343
:107BE000491EF9D51046704770B5064607F070FC7F
:107BF000046805460A220021304600F0D7FA2C60BE
:107C000070BDF8B502464A40D40F42004B005208FE
:107C10005B089A4202D20246084611464A0023D027
:107C2000C30D4A00DDB2120EAD1A202D35DA49021D
:107C30000126490AF6058A19002C00D0524220215B
:107C40004F1B1146B9402A411018C20D9A4221D04B
:107C5000002C17D0012D08DCDA05801AD20F80190C
:107C6000D207DBB200F0E2FAF8BDDA05801A012390
:107C700040001B06C01880185A428018CA0F1043D3
:107C8000490007E04908C2071143DA05801A801944
:107C90004008801800F0C2FAF8BD61000122511AB4
:107CA000001BF7E70122D2075140AAE70122D207C1
:107CB0005040A6E7024670B54A40D30FDB074000AC
:107CC0002DD04A002AD0010E140E0002120209190A
:107CD000400A520A8418E50104465443000A120A75
:107CE0002E045043A4194219200CC543AA18120CA3
:107CF0000125AD03521C521912047F39240400D00F
:107D0000521C104301D44000491EC2B20C06C009E7
:107D10002018401C4008802A02D003E0002070BDDB
:107D200040084000002900DA0020184370BD000020
:107D3000F0B51FB488B00B99099800244840099900
:107D4000C00F490049080991C0070B9900904900EC
:107D500049080B9109990898A64608431CD00B992D
:107D60000A98084318D0099801244000420D4800A1
:107D7000410D099824050003000B204309900B983E
:107D80000003000B20430B9050181C4940180022A0
:107D900001901446104605E0002001460DB0F0BDEC
:107DA000032801DA034600E003239C46C11A0AAE09
:107DB0000AE05F0008ADED5B4F00F75B7D430027F5
:107DC000AA187C41491C5B1E6145F2DD410004ABF1
:107DD0005A522104120C0A43240C401C0828DFDBF1
:107DE000019802900099704601910090059B049AB9
:107DF0000799069800F060FAD0E700000DFCFFFF3D
:107E0000F0B50C465C4085B0E40FE40703944C00E9
:107E10000026640859009446490802460296224307
:107E200021D062460A431ED06200570D4A000E035D
:107E30002303550D012402462C492405781B1B0BF6
:107E4000360B401823432643614600901C46501AC7
:107E5000B44103D30098401C009002E092180098AF
:107E60005B41002803DA0020014605B0F0BD002088
:107E7000012109050746864611E064461D46141B8C
:107E8000B54106D36546521BB341744607430C43C4
:107E9000A646CD0740084908284392185B4105468D
:107EA0000D43EAD11046184313D06046194650409E
:107EB0007140084306D06046101AB34106D2012231
:107EC000002306E000220123DB0702E00122D24367
:107ED0005310009874460105381C6141029C039DB3
:107EE0000019694100F0DBF9BFE70000FD03000065
:107EF000C217C10F504010B54018CA079623002181
:107F000000F094F910BD00000EB5C217C10F50402B
:107F1000CA0740180021054B0293019200910A46BE
:107F20000B4600F0C9F903B000BD000033040000A7
:107F30000EB505490291002100910A460B460191B8
:107F400000F0BAF903B000BD33040000C20F4100D5
:107F500040020123400ADB05D207090EC0187F2921
:107F600001DA00207047962903DC9623591AC8408D
:107F700001E096398840002AF4D040427047000062
:107F800070B5CD0F4A0009030123090B1B051943E6
:107F90000B4BED070024520D9A4201DA002070BD10
:107FA000074B34339A4203DC9A1A00F061F802E07E
:107FB0000449511888402C43F1D0404270BD000064
:107FC000FF030000CDFBFFFFC20FD20740004008B7
:107FD0000BD0C10D0723DB01C91840020905400A77
:107FE0001143C20840071143704700200146704703
:107FF000CB0FDB07490010B5490802460A4307D0FA
:108000000A0D07240903E401090B121B002A01DCF5
:10801000002010BDC900440F0C43C100E018D20578
:10802000801800F0FBF810BD0122D207002800DB09
:10803000101A002900DB511A814270470122D20731
:10804000002800DB101A002900DB511A8842704713
:1080500010B5202A04DB0146203A9140002010BDD3
:10806000914020239C1A0346E3401943904010BDE1
:1080700010B5202A04DB0846203AD040002110BD6C
:108080000B46D340D0402024A21A91400843194601
:1080900010BD000070B50C4600683C21FFF728FCBD
:1080A00021603C21FFF724FC61601821FFF720FCD0
:1080B0000546A1600721001DFFF71AFCA1610F48CA
:1080C000A90008180E49FFF713FC0246443288083D
:1080D0006261E0613B2802D3910700D0401C00217F
:1080E000084B0A462161995C814203D8401A521C10
:1080F0002261F8E7401CE060204670BD6C0B000078
:10810000B5050000ACB801080FB400B589B00CA9E2
:1081100000910B990023CB60204B214A06930792D4
:10812000042201921F4A02921F4A089202466B469D
:10813000002000F0AEFA09B008BC04B0184770B5D2
:1081400086B006460020C0430190002015460C462C
:108150000091029104903246694604A8FFF7D4FFCB
:10816000024604982118002D05D0002801D00846A9
:1081700000E020462860049800280DD0002A02DD87
:108180000098884208D0081B019000943246694646
:10819000029404A8FFF7B8FF06B070BDE988000894
:1081A00009890008FFFFFF7F297A0008F7B5009CC6
:1081B0000F4600262578641C002D05D0FFF730FC03
:1081C0000068405DC007F5D12B2D02D02D2D18D0B1
:1081D000641E39462046029A00F0A8FB002F04D006
:1081E0003968A14201D10099396071050224002942
:1081F0000BDA4042002803DD07F06AF90460A007AB
:10820000FEBD012080020643E3E70028F8DA07F00C
:108210005FF904600048FEBDFFFFFF7F002904DA1C
:10822000401C490001D140084000704770B4002450
:10823000050C05D11024000402D1002921D01124FD
:10824000050E01D100020834050F01D10001241DE3
:10825000850F01D18000A41C002801DB4000641CB4
:10826000002908D020252E1B0D46F540A14000D046
:1082700001212943084301061B1B000ADB1D02D50F
:10828000002070BC7047DB05181880180029F8DA48
:10829000401C4900F5D170BC40084000704710B543
:1082A000002B08DA0024401C614192185B411A43FC
:1082B00001D14008400010BDF0B51FB482B00546A2
:1082C0000C0003D0084607F07BF802E007F078F8CE
:1082D00020300246009021462846FFF7B9FE049B55
:1082E000059A04460F4618431143084314D0184614
:1082F00010431BD0009840210A1A18460599FFF731
:10830000B7FE05460E46009A05990498FFF7A0FEB1
:10831000084305D0012004E02046394607B0F0BDEF
:108320000020C11705430E432C43374300990E9894
:108330006305401A7905E40A00220C43FD0A0A305D
:1083400002D500200146E9E70105101969410C9C9E
:108350000D9D00196941FFF7A2FFDFE7F0B5074661
:108360000846584087B0C00F049048000E46590098
:1083700040084908BC1A884105D2384631461E4695
:1083800017460B4602465800400810434CD0300DAB
:10839000039040055900400D490D0590401A029088
:1083A000402872DA18030121000B090508430190E7
:1083B00004980092002805D001995242002088417B
:1083C00000920190029840210A1A01990098FFF743
:1083D0003FFE05460C466B4607CB00F0B7F8C019C8
:1083E0007141039A0E0D0023D71756401A467A4062
:1083F000164344D0049A002A2DD0029A012A039AE7
:1084000015DC1205C01A914101263605001C714188
:10841000D20F059ED2070093019202962A46234668
:10842000FFF74AFF07B0F0BD38463146FAE71605B8
:10843000224A0F46B218C01AB74101210905001C93
:108440004F4100187F41114618187941E20F10433F
:108450006D19644113E0E2076D0815436408C20713
:108460001443039A01261205C01A91413605001CD7
:108470007141CE07400830434908C01851412A468F
:108480002346FFF70CFFCDE7FFE7049801224000E9
:10849000C117121A00238B4104983146C417381AA9
:1084A000A141EEE730B40124E407634030BC55E756
:1084B00030B40124E407614030BC4FE70000E0FF26
:1084C0004A0009030123090B1B0519430A4B10B588
:1084D000520D9A4202DA0020014610BD064B343399
:1084E0009A4203DC9A1AFFF7C3FD10BD034BD21862
:1084F000FFF7AEFD10BD0000FF030000CDFBFFFF46
:1085000010B5002904DB0124E40740428C412146D8
:10851000002B04DB1C460123DB075242A341994296
:1085200000D1904210BD0000064C0125064E05E02A
:10853000E36807CC2B430C3C98471034B442F7D384
:10854000FFF7C2F9F8C7010818C8010810B5202ABA
:1085500006DBCB170846203A1041C1170B4306E053
:108560000B461341D0402024A21A914008431946DB
:1085700010BD0000FFB5087889B01546FF2805D06A
:10858000491C2D2804D00022002407E000240BE021
:108590000122F9E70A235C430419491C0878FF28E3
:1085A000F8D1002A00D06442002004902A780146C5
:1085B0002D2A01D02B2A0FD16D1C2D2A02D000228A
:1085C000049209E00122FBE700260A2233466D1CD3
:1085D000FFF7E8F9381871412F78FF2FF4D10C9A82
:1085E000A218069202460A4304D0FF23069A91334A
:1085F000DA4205DA002109980A4606C00DB0F0BD3E
:108600000024B74AB54D2646079200F0F1F90290D2
:1086100006980391002801DA474200E00746390531
:108620000020AF4A001C51410191009012E0F80770
:1086300007D022462B4630460799FFF779FB0646BE
:10864000079122462B4610461946FFF771FB044658
:108650000D467F10002FEAD10698019B0028009A52
:108660000399029806DAFFF7CBFB3246079BFFF728
:10867000C7FB05E0FFF75CFB3246079BFFF758FBA3
:10868000049A002A02D00122D2075140099A03C25B
:10869000B4E7FFB591B0002009900025ED432E20EE
:1086A0009E685C681F460190B9696D1C12988847E6
:1086B0000090396A88470028F6D10098401C0AD0FB
:1086C0000D20C0018443002E12DD00982B2809D014
:1086D0002D280DD103E00020C04315B0F0BD0120CE
:1086E00080020443B9696D1C12988847761E009079
:1086F00003A9600501D52D2000E02B206A461073E8
:10870000491C0CA80F9102900AE0B9696D1C1298DF
:10871000884700900120400204431398761E0560AC
:10872000002E02DD00983028EFD001990098884291
:1087300046D18020044308E00998401E099001209A
:10874000400204431399681C0860B9696D1C761EC9
:108750001298884700903028EED031E00199884285
:1087600005D1200603D480200443761E1EE0009825
:1087700006F088FF002826D001204002044307A904
:108780000F980331761E88420BD200980F9930382B
:1087900008700F98401C0F90200607D50998401EBE
:1087A00003E0200602D40998401C0990A00502D5D8
:1087B0001399681C0860B9696D1C1298884700906D
:1087C000002ECBDC59E0002E57DD0098652801D043
:1087D000452852D1A00550D5032000028443B96931
:1087E0006D1C761E129888470090002E0CDD2B28F9
:1087F00004D02D2808D1FF2001300443B9696D1C35
:1088000012988847761E0090E00501D52D2100E0E2
:108810002B21029801700298401C0290019025E0E3
:108820000120400204430EA902980131761E8842BD
:108830000ED20098029930380006000E087003D15D
:108840000299019881420AD90298401C029006E0E0
:10885000E00501D5234801E0224840420990B9696A
:108860006D1C12988847009013980560002E04DD57
:10887000009806F007FF0028D2D1F96912988847BE
:108880000F99FF200870029903AA087000200A902F
:108890000B900CA90AA8099BFFF76CFEA00502D457
:1088A0000120C04319E72420044209D0E00713D176
:1088B00038680B9A0A99031D3B60006806C00BE0FC
:1088C0000B990A98FFF794FB0146E00704D138683A
:1088D000021D3A60006801602846FEE60000144070
:1088E0000000F03FF1D8FFFF4268002A08D001687D
:1088F0000B78491C002B03D0521E06C01846704747
:108900000121C160881E70474268002A0BD0C368ED
:108910000168002B07D183688B4204D0491E521C8A
:1089200006C0002070470020C0437047F7B582B0F2
:10893000029C00272078641C15460197302802D03D
:10894000002D15D015E020780127641C782804D06C
:10895000582802D0002D09D00BE0002D01D0102D99
:1089600007D1002710252078641C02E0082500E0CC
:108970000A250026009610E000990127694308188F
:10898000020C294680B2714300908E18380486424A
:1089900001D3012001902078641C294600F019F8C9
:1089A0000028E9DA0398002805D0002F01D0641EC2
:1089B00000E0029C04600198002806D006F088FDC3
:1089C00002210160C81E05B0F0BD009930040843C3
:1089D000F9E73A2800D23038202302469A43412A48
:1089E00001D310463738884201D30020C043704776
:1089F0000EB5054A02920022009213460192FFF73B
:108A00005BFC03B000BD00003304000070B58C189F
:108A10000578401C6B075B0F01D10378401C2A11BD
:108A200006D10278401C03E006780E70401C491CF9
:108A30005B1EF9D12B0705D40023521E0DD40B70F9
:108A4000491CFAE70378401CCB1A921C03E01D78FE
:108A50000D70491C5B1C521EF9D5A142D8D30020D1
:108A600070BDF1B584B0049C002601200290002561
:108A70000420871B13E0A8000119009101904968A8
:108A80002058FFF7DBFA09D2009901984A6801994A
:108A90002058625000994860002002906D1CAF423F
:108AA000E9DC0298002802D1761C042EDDDB049854
:108AB000806805B0F0BD000038B504460648054999
:108AC0000068FEF715FF604300E0401E009000289C
:108AD000FBD138BD40420F00D4010020F8B5044658
:108AE000006881688907890F012902D10168C907D7
:108AF00022D18168114A10261140012500290ED18A
:108B00008168294381600120FFF7D6FF01F0C2F898
:108B100007460CE001F0BEF8C01B0A2807D9606DBB
:108B200030436065A06D2843A0650120F8BD206832
:108B30000068C043C007EDD10020F8BD17000080D9
:108B400070B5064600240EF09FFD2DA13046FFF7BC
:108B500023F800281AD02BA13046FFF71DF8002873
:108B600015D0294D1820604329583046FEF7E2FF02
:108B7000002810D025A13046FEF7DCFF002810D0D9
:108B800018204443601981683046884770BD3046DC
:108B900008F0F6FA70BD641CE4B2322CE2D9012070
:108BA00070BD1BA13046FEF7C5FF00280ED018206F
:108BB00044436019C168304688470028F0D1154801
:108BC0000078002819D109F089FC16E012A130467E
:108BD000FEF7B0FF00280AD005F09CFE01461820E1
:108BE0004443601942690DA006F0C6FB05E0182059
:108BF00044436019016930468847002070BD000079
:108C00004154000041543F00088B01083D3F0000E3
:108C10003D000000690000203F0000005B25755DFD
:108C200025730D0A0000000030B50024074B4343B4
:108C30001B0D04D0E4183C256B43C01AF6E73C2812
:108C400001D33C38641C10600C6030BD444400000B
:108C500010B5024800F0D2FC10BD0000A8060020AC
:108C600030B5446C1C252C400125A540046C656082
:108C7000046863608368102B036803D09960006800
:108C8000C26030BD9A600068C16030BD10B550212F
:108C9000014800F039F910BD005E0208704710B5B8
:108CA000012000F015FF10BD10B5102000F010FFDE
:108CB000FF20013000F00CFF802000F009FF10BD04
:108CC00010B586B0044614216846FEF71CFF052047
:108CD0000023234901220007002C06D0012C13D0C9
:108CE000022C1BD0032C23D030E0CC6A1443CC627E
:108CF000C96A0092C907C90F059101930293694699
:108D000000F0F2FE06B010BDCC6A1443CC62C96A12
:108D10000092C907C90F0591124912E0CC6A1443A9
:108D2000CC62C96A0092C907C90F05910E4908E0D3
:108D3000CC6A1443CC62C96A0092C907C90F059175
:108D40000A4901910293694600F0CEFE00220221F9
:108D5000052001F035F8052001F026F8D2E70000E3
:108D6000001002400000311000002110000011101E
:108D700010B586B0044614216846FEF7C4FE0D49BE
:108D8000CA6A01200243CA62C96A014005911021E2
:108D90000091012C0AD003200190002002900520B0
:108DA0006946000700F0A0FE06B010BD024901911F
:108DB000F4E70000001002400000211010B5044646
:108DC00000F046FD22460349022000F017FD00F0A6
:108DD0000BFD10BD080008087047000010B50849D9
:108DE00000224A6107494B684C1523434B604B688E
:108DF000082423434B60C009C001026010BD00007D
:108E0000342E00200020024010B5214A0021906934
:108E1000C305204804D541690223194341619115D6
:108E200093699B0505D5436901242343436163028C
:108E3000194393695B0505D54369082423434361BE
:108E4000E301194393691B0505D5436904242343B2
:108E500043616302194393699B0405D54369102458
:108E6000234343616302194393699B0304D5446917
:108E700020231C43446119439369DB0305D54369EF
:108E8000402423434361A0020143916110BD0000CF
:108E900000200240342E002070B5054600F0FAFE96
:108EA0000646184C0AE0681C08D0002D04D000F0DB
:108EB000F1FE801BA84201D9032070BDA069C00744
:108EC000F1D1A069800701D50220A061A069C00589
:108ED00011D4A06980050ED4A06940050BD4A06907
:108EE000000508D4A069800405D4A069800302D4D9
:108EF000A069C00303D5FFF787FF012070BD0020E4
:108F000070BD00000020024070B50D4606460024EA
:108F100000F026FD094A0020956041C20849074833
:108F200000F0B0FC002806D0641CE4B2032CF5D19C
:108F300004A006F021FA00F0E7FC70BD381D002007
:108F40001C0100206572726F7220696E204572618B
:108F50007365206F7065726174696F6E0A0D000031
:108F6000F8B516460F460546002400F0F9FC14E05B
:108F7000A0003A582946022000F0D4FC002809D06D
:108F800008A006F0F9F900F0B9FC01460CA006F0C3
:108F9000F3F904E0641CA4B22D1DB442E8D300F040
:108FA000B3FCF8BD6572726F7220696E20577269EA
:108FB0007465206F7065726174696F6E0A0D0000D0
:108FC00077726974655F6572726F725F666C6167F4
:108FD0003A25780001680248416040687047000007
:108FE0001C01002001491620C875704700000020B0
:108FF00010B50C48418F002913D00B4841430B4852
:1090000005F002FD094805F011FD09480078012826
:1090100007D10848007B002803D1064901202039E8
:10902000C87210BD9800002080EE3600F8040020C1
:10903000620000202000002010B50D4800780128B3
:1090400008D10C48007B002804D10A4901202039AE
:109050000874C8720848418F002907D00748414367
:10906000074805F0D1FC064805F0E0FC10BD000003
:1090700062000020200000209800002080EE3600D2
:10908000F804002000B587B014216846FEF73BFDC8
:109090000948C16A01221143C162C06A6946104091
:1090A00005906020009000200190029005200007AC
:1090B00000F01AFD07B000BD00100240F0B58DB001
:1090C00004462C216846FEF71EFD2046FEF78CFD67
:1090D0000C90601DFEF788FD0B9020460830FEF7CF
:1090E00083FD074620460B30FEF77EFD06462046F0
:1090F0000E30FEF779FD054620461130FEF774FD6F
:109100000146074A0C98801805900B986A46401E45
:109110000490E2C26846FEF797FC0DB0F0BD000077
:1091200094F8FFFFF8B5054604464035287C002634
:10913000012808D001202874206881688907890FD8
:1091400001290ED101E00220F8BD0168C90708D04D
:10915000606D202108436065012600202874304698
:10916000F8BD616DFF220132914302221143616516
:10917000C1688907890F0091C16889088900C160A9
:109180002068816892071143816000F083FD0746E3
:109190000EE000F07FFDC01B0A2809D9606D022196
:1091A0008843102108436065002028740120F8BD21
:1091B000206880680028ECDB2068C168009A1143B1
:1091C000C160606D80088000401C6065C5E70000DC
:1091D000F8B506460D464036317C01290DD00121F7
:1091E000317401688A68520709D5416D2022114304
:1091F0004165002030740120F8BD0220F8BD174BF6
:109200006A68D80547109A42154C8A6A2B6812D0B2
:109210005B035B0B1A438A622968490305D5A16881
:109220000143A1600A20FFF747FC2868800312D59C
:10923000A06838430EE05B035B0B9A438A6229689F
:10924000490302D5A1688143A1602868800302D543
:10925000A068B843A06000203074F8BD0110000081
:10926000002701400068006C7047000070B50400E2
:1092700006D0606D264600254036002802D006E064
:10928000012070BDA5653574204600F0D3F8606DEF
:10929000C00603D421688868400705D5606D102199
:1092A000084360653574EBE7606DFF22013290433F
:1092B00002221043606588688207920F5B48012A8A
:1092C00002D10A68D2072BD1032362689B079A4216
:1092D00005D05B429A4202D05B009A4209D10A69EA
:1092E000920092080A6121680A6963681A430A6158
:1092F0000CE00A69920092080A6181680F229204C8
:109300009143816081686268114381602168CA6805
:1093100018239A43CA602168CA68A3681A43CA60BE
:10932000816801225206914381608168A28E5206B3
:109330001143816020688168C90004D481680122DA
:109340001207114381602068C168394A1140C16029
:109350002069E168022825D0002001432046203002
:109360000278037B52035B001A431143226B1143C3
:10937000A26992031143E269D20311432268D368C0
:109380001943D160616A0A46FF3AC23A05D0A26A1F
:1093900011432268D3681943D16042780121012A20
:1093A00002D00BE00420D8E70078002823D0606DBD
:1093B000202210436065A06D0843A065E06B012882
:1093C00020681FD00169C90703D001694908490015
:1093D000016120684169C908C9004161206841698B
:1093E000A26B11434161A565606D80088000401C3F
:1093F0006065002070BD2068C26801231B041A4309
:10940000C260DBE70269FF239B009A430261206888
:109410000269236CA66C1A43636C33431A430261DE
:10942000206802690A430261D3E700000027014077
:109430001902FEFF00680449884204D10348416BC9
:10944000421511434163704700240140001002405F
:10945000F8B504464069254640350E4608280BD02D
:109460002068C068C00709D0606D2021084360658E
:10947000002028740120F8BD082700E00C2700F028
:1094800009FC009011E0701C0FD0002E05D000F0F8
:1094900001FC0099401AB04207D9606D04210843CD
:1094A0006065002028740320F8BD206800683842F9
:1094B000E9D0606D01214902084360652068C168F8
:1094C00009058A0F0C21002A1BD12022125D002AD7
:1094D00017D10268120714D5826853070122002BA6
:1094E00008DB43688B434360606D1302984310436D
:1094F000606506E0606D202318436065A06D104331
:10950000A065A069002801D1206801600020F8BD95
:1095100070B50446216800208968490721D4254692
:109520004035297C01291CD001212974E1690129D8
:1095300004D02046FFF7D2FA002811D1616D0A4A03
:109540001140FF220132114361650021A165297498
:1095500022681C21116021688A6804231A438A60EA
:1095600070BD022070BD0000FEF1FFFF30B5014666
:1095700020314A790023022A04D00422C2630B71ED
:10958000012030BD026814680E25AC4314600268E7
:109590001468640864001460446C1C2214400122A6
:1095A0001546006CA54045604A7118460B7130BDE8
:1095B00070B50024014620314A79022A03D00421E3
:1095C000C163012418E0026813680E25AB431360E1
:1095D000026813685B085B001360436C1C22134035
:1095E000012215469D40036C5D604A7100220A719C
:1095F000816B002900D08847204670BDF0B4016C13
:109600000D6801680C68466C1C2304221E40174636
:10961000B7402F420ED067070CD50C68A40602D4C1
:109620000C6894430C60416C19408A40016C4A609C
:10963000016B1AE00227B74002462F402032002F6C
:1096400017D0A70715D50C68A40605D40C680A2501
:10965000AC430C6001215171446C02211C40036C2D
:10966000A140596000211171C16A002918D0F0BCD5
:1096700008470827B7402F4212D0240710D50C689E
:109680000E25AC430C60446C01211C400B46A340EA
:10969000046C6360C163517100211171416BE4E797
:1096A000F0BC704770B504003CD01F4825681421F9
:1096B0002818FEF71DF9800060641C482064022110
:1096C000204620300246417129681948E36801406C
:1096D000A06866691843236933431843A369184394
:1096E000E3691843236A1843084328600121A068EE
:1096F0008903884210D00D488030836A656C1C2134
:109700000D400F26AE40B3438362656C63680D4025
:10971000816AAB400B4383620020E06301215171F9
:10972000107170BD012070BDF8FFFDBF0000024048
:109730000F80FFFFF8B504468C46203001790025E4
:10974000012909D00126067141790027012905D098
:10975000077102252846F8BD0220F8BD022141719B
:10976000E7632068016849084900016061462046B6
:10977000FFF776FA206B00282068016801D00E22DE
:1097800005E0042291430160206801680A22114328
:1097900001602068016831430160DBE770B5044671
:1097A00000F078FA0546601C02D0044800782418BE
:1097B00000F070FA401BA042FAD370BDC80100202F
:1097C00070B5074D04462846FFF766FB002805D113
:1097D0000449486120602846FFF75EFB70BD000029
:1097E00050C30000342E0020034841680122114379
:1097F000416000207047000000200240F8B5124D83
:109800000746287C14460E46012807D001202874FC
:109810000E48FFF741FB002802D00CE00220F8BD03
:1098200000216961022F09D0012F09D0002F09D032
:109830000648FFF731FB00212974F8BD3460FAE7D0
:109840003480F8E73470F6E7342E002050C300006F
:1098500009494868C0070DD0EFF3108072B6074A77
:10986000CA60074ACA6080F310884868C00701D000
:10987000012070470020704700200240EFCDAB89E7
:1098800005040302F8B51A4E0546307C0F46012840
:1098900007D0012030741748FFF7FEFA010002D00C
:1098A00021E00220F8BD0020C04338606C6814E05D
:1098B0002046FFF793FA0F48FFF7EEFA01460E48ED
:1098C000426808239A434260426843159A434260C3
:1098D000002901D03C6006E08034A8686A68C001B5
:1098E0008018A042E4D8002030740846F8BD00007B
:1098F000342E002050C3000000200240014840697F
:1099000070470000342E00200548416802221143B0
:10991000416041680122114341600020704700000E
:1099200000200240F8B50C4C1646207C0F4601285A
:1099300008D0012020740948FFF7AEFA002500285E
:1099400002D006E00220F8BD65613E600348FFF7E3
:10995000A3FA2574F8BD0000342E002050C3000087
:1099600011484168C9070BD0EFF3108172B60F4A56
:10997000C2600F4AC26081F310884168C9070ED1E6
:10998000416889070DD5EFF3108172B6094A02616B
:10999000094A026181F310884068800701D50120DF
:1099A000704700207047000000200240EFCDAB89D7
:1099B00005040302BFAE9D8C16151413F8B53D497E
:1099C0003B4BCA7D0C469E7801252034183A01286D
:1099D00007D010280BD02902022688420DD15E71D3
:1099E000F8BD012EFCD1302AFAD34D7603E0012ECA
:1099F000F6D1302AF4D36570F8BD8028FCD12572E9
:109A0000E07800280BD1E5702B492C4804F094FF36
:109A10002B492A4804F0F8FF284805F007F8207879
:109A20000122401C20709103264800F02CF904F01C
:109A300071FF254F0025009026E0009804F070FF8C
:109A40007D21C900884207D3009804F069FFB8421D
:109A500002D20120207117E0009804F061FFB842A3
:109A600012D31120FFF7AAF9144825701749283896
:109A700004F062FF11486421283804F0C5FF0F4844
:109A8000283804F0D3FF06E005208021000700F00D
:109A9000EDF80028D1D0012100228903094800F007
:109AA000F2F820780528A7D125702671F8BD0000AE
:109AB000880100200000002099E2000894040020A2
:109AC0008813000000040050B80B0000EDE200080D
:109AD00010B504494A69024202D04861FFF76EFF9F
:109AE00010BD000000040140FCB500230124A7E0E4
:109AF00027462A469F403A406FD04D68012D05D039
:109B0000022D03D0112D01D0122D16D18568032608
:109B1000AC465D00AE46AE406546B543AC46CE6849
:109B20007546AE4065462E43866046680D79BE4355
:109B3000ED06ED0F9D4035434560C6685F00032587
:109B4000BD40AE46AE4335468E68BE402E43C6602D
:109B50004E68022E01D0122E14D1DE08B60036183F
:109B60000196366A5D07B446EE0E0F25B5400096A5
:109B70006646AE43B4460D69009EB54066462E4328
:109B8000019D2E6206687546AE430D79AD07AD0F97
:109B9000BD40354305604D68ED0050D52B4D6E6BD3
:109BA00026436E639E082A4DB6007519AC46AD6813
:109BB0009E07360F0F27B740BD4305273F07B84222
:109BC00001D100271AE0234FB84201D1012715E047
:109BD000214FB84202D1022710E030E01F4FB842B7
:109BE00001D103270AE01E4FB84201D1042705E046
:109BF0001C4FB84201D1052700E00627B7402F438C
:109C00006546AF60184D2E684F689643FF0300D538
:109C100016432E606E684F689643BF0300D5164307
:109C20006E60AE684F689643FF0200D51643AE6083
:109C3000EE684F689643BF0200D51643EE605B1C8A
:109C40000A681546DA4000D052E7FCBD0010024019
:109C5000000001400004005000080050000C0050BB
:109C600000100050001C0050000401400069084032
:109C700000D001207047426913460B401B049143FA
:109C80000B4383617047002A01D081617047816274
:109C9000704700000148806870470000C80100203C
:109CA00070B504000FD0216813480860216813487C
:109CB000086003CC41602068083C21688860FFF799
:109CC000E9FF054608E0012070BDFFF7E3FF401BF8
:109CD000292801D9032070BD2068C0680028F4D16C
:109CE00020680269E1688A4201D0016101E004490B
:109CF0000160002070BD0000CCCC00005555000074
:109D0000AAAA000000680249016000207047000014
:109D1000AAAA000002488168027889188160704709
:109D2000C801002010B508480024016840221143F2
:109D30000160204600F00AF8002801D0012401E06B
:109D400000F026F8204610BD0020024070B5044601
:109D50000D4D7D202978C000FDF7CAFD01460B4856
:109D60000068FDF7C5FD01F00FF8002809D1042CAB
:109D700007D200222146401E00F022F800206C602D
:109D800070BD012070BD0000C8010020D40100207A
:109D90000448416B012211434163816B020411436A
:109DA0008163704700100240002805DBC106C90E20
:109DB00001208840014908607047000000E100E090
:109DC00010B505F039FB10BD0248016802151143BA
:109DD000016070470070004002480168421511435D
:109DE000016070470070004002480168821511430D
:109DF0000160704700700040F0B5154A1368154DBA
:109E000054152D6A2340ED07ED0F002B04D0002DD3
:109E100002D01668A64316601668B608B600064358
:109E200016600D48076904263743076101290DD0E4
:109E300040BF20BF20BF0169B1430161002B04D0A6
:109E4000002D02D0106820431060F0BD30BFF2E753
:109E5000007000400000014000ED00E0F8B504464D
:109E6000007800275D4D800671D55C4E403EB06B9A
:109E7000C00004D4B06BA9050843B063012758485B
:109E80000168C90511D40168821511430160FFF70B
:109E900001FF009005E0FFF7FDFE0099401A6428DD
:109EA00037D84F480068C005F5D532680321090549
:109EB00060680A400140914208D08103890F03295C
:109EC00004D13168890301D50120F8BD2A69032135
:109ED00009040A4022D0084090421FD02078800612
:109EE0001CD528692A6988430121C9040A432A61CB
:109EF0002A698A432A612861C0050FD5FFF7CAFE87
:109F0000009008E0FFF7C6FE0099411A35488142EB
:109F100001D90320F8BD28698005F3D5616888035D
:109F2000800F032805D132680005824301400A43AF
:109F300032602869032261681204114008432861D5
:109F4000002F04D0B06B012109078843B06320784B
:109F5000C00705D0E868A168800880000843E86071
:109F60002078800705D5E8680C218843E16808431C
:109F7000E8602078400706D5E86803218902884315
:109F800021690843E8602078000706D5E8680321C6
:109F90000903884361690843E8602088C00506D545
:109FA000E868032109048843A1690843E860207830
:109FB000400606D5E868012189068843216A0843DE
:109FC000E8602078000606D5E86803218904884304
:109FD000E1690843E8600020F8BD0000401002403D
:109FE0000070004088130000F8B50E46050038D018
:109FF0005E480068C007C00FB04214D25B4C2068B6
:10A000004008400030432060FFF744FE074605E06B
:10A01000FFF740FEC11B564881427AD82068C0072E
:10A02000C00FB042F4D12878524C800705D5E068C3
:10A03000F0218843A9680843E0602878C00752D01F
:10A040006868022806D0032807D0216801280AD0B2
:10A05000890504E02168890301E02168890100295C
:10A0600003DB0120F8BD4907F9E7E16889088900A9
:10A070000143E160FFF70EFE0746686802280AD038
:10A08000032814D001281ED029E0FFF703FEC11BCE
:10A09000374881423DD8E0680007800F0228F4D19C
:10A0A00021E0FFF7F7FDC11B3148814231D8E0685C
:10A0B0000007800F0328F4D115E0FFF7EBFDC11B6B
:10A0C0002B48814225D8E0680007800F0128F4D191
:10A0D00009E0FFF7DFFDC11B2548814219D8E06880
:10A0E0000007800FF5D121480168C907C90FB142A7
:10A0F00017D901684908490031430160FFF7CAFDDB
:10A10000074608E005E0FFF7C5FDC11B184881427E
:10A1100001D90320F8BD15480068C007C00FB04240
:10A12000F1D12878400706D5E06807210902884365
:10A13000E9680843E0602878000707D5E068072150
:10A14000C90288432969C9000843E06000F03AF871
:10A15000E168094A0906090F515CC84007490860CF
:10A1600007480068FFF7F2FDF8BD0000002002403C
:10A170008813000000100240F8B70108D401002045
:10A18000CC010020044805490068C968044A490513
:10A19000490F515CC8407047D401002000100240B4
:10A1A00011B80108044805490068C968044A8904CF
:10A1B000490F515CC8407047D40100200010024094
:10A1C00011B8010870B51A4AD3681A490C20184012
:10A1D0008D0004280CD04E00082810D00C2810D078
:10A1E00050680004410F0120C003491C884070BD25
:10A1F0001068C00601D5084670BD284670BD3046BF
:10A2000070BD98020C4C000F205C1B029C0FD368A1
:10A21000641CDB0301D5314603E01268D20600D48A
:10A22000294605F0E4F822460023FDF78BFB70BDBC
:10A230000010024000093D0008B80108FEB5050005
:10A240007ED0F74CE7680C20E66807400120000448
:10A2500006402878C00747D0082F05D00C2F0AD118
:10A2600001200004864206D1206880033CD568683E
:10A270000028E5D038E0012069680004814203D15C
:10A2800021680143216011E0052301221B0492048F
:10A290009942216802D111432160F1E78143216095
:10A2A0002168014000912068904320606868002880
:10A2B0000DD0FFF7EFFC009005E0FFF7EBFC0099F5
:10A2C000401A64287ED820688003F6D50CE0FFF79A
:10A2D000E1FC009005E0FFF7DDFC0099401A6428DE
:10A2E000F0D820688003F6D4287880075DD5E86828
:10A2F000810604D5226820210A432260884309236D
:10A30000042F0DD00C2F01D1002E09D000283CD0F5
:10A310002168994301432160FFF7BCFC064628E011
:10A320002168490701D500288AD061681F221202DE
:10A3300091432A691202114361602168994300E048
:10A34000C7E101432160FFF73DFFE16809060A0FFD
:10A35000B449895CC840B4490860B4480068FFF754
:10A36000F5FC002874D120E0FFF794FC801B022844
:10A37000A8D820684007F7D560681F2109028843E4
:10A3800029690902084360600FE020684008400026
:10A390002060FFF77FFC064604E0FFF77BFC801B94
:10A3A00002288FD820684007F7D42878C00661D5E6
:10A3B000002F0DD0E86900284BD02068FF21013123
:10A3C000084300E0EAE02060FFF764FC06462DE069
:10A3D0002068800502D5E8690028A5D060680721BB
:10A3E00049038843696A084360606068298C0002F9
:10A3F000000A090608436060686A410B0120C00337
:10A40000491C8840E16809060A0F8649895CC840F2
:10A410008549086085480068FFF798FC002817D137
:10A4200028E0FFF737FC801B0228A1D820688005B0
:10A43000F7D56068072149038843696A084360606B
:10A440006068298C0002000A09060843606011E078
:10A4500025E12168FF20013081432160FFF71AFCCC
:10A46000064604E0FFF716FC801B022899D82068F6
:10A470008005F7D428786E4E000724D56869002837
:10A48000306910D0012108433061FFF703FC0090D0
:10A4900005E0FFF7FFFB0099401A02287ED83069DB
:10A4A0008007F6D50FE0400840003061FFF7F2FB6F
:10A4B000009005E0FFF7EEFB0099401A02286DD8E6
:10A4C00030698007F6D42878400764D500200290D0
:10A4D000A06BC00006D4A06B012109070843A0634C
:10A4E0000120029053480168C90511D40168821502
:10A4F00011430160FFF7CEFB009005E0FFF7CAFBB8
:10A500000099401A642849D84A480068C005F5D522
:10A51000FF20AA680130824203D1316901433161D1
:10A5200011E001218902002A07D005231B029A426B
:10A5300003D132690A433261EFE732698243326103
:10A54000306988433061A86800280ED0FFF7A2FB6D
:10A55000009006E0FFF79EFB0099411A36488142C1
:10A560001CD830698005F5D50DE0FFF793FB00900E
:10A5700006E0FFF78FFB0099411A2F4881420DD862
:10A5800030698005F5D40298002804D0A16B012021
:10A5900000078143A1632878800600E07EE02ED585
:10A5A0002648A9694314002916D0A26801210A434C
:10A5B000A260626B0A436263016A19430162FFF79A
:10A5C00069FB064604E0FFF765FB801B022865D89F
:10A5D000A0688007F7D512E0A16849084900A1608A
:10A5E000016A99430162FFF755FB064604E0FFF755
:10A5F00051FB801B022851D8A0688007F7D4A86AB5
:10A60000002868D00C2F4FD001263606022820687B
:10A6100016D0B0432060FFF73DFB054640E0000048
:10A6200000100240F8B70108D4010020CC0100203E
:10A6300040100240007000408813000000000140FC
:10A64000B0432060FFF726FB074604E0FFF722FB3C
:10A65000C01B022822D820688001F7D4296BE86A41
:10A66000E2680843696BFD231B049A4311430843C6
:10A67000E060206830432060FFF70CFB054604E0F3
:10A68000FFF708FB401B022808D820688001F7D597
:10A6900021E0FFF7FFFA401B022801D90320FEBD8D
:10A6A00020688001F5D416E00128F8D0E068012187
:10A6B0000904EA6A014091420BD10F2189042A6BF7
:10A6C0000140914205D1032189050840696B884208
:10A6D00001D00120FEBD0020FEBD7047006889004A
:10A6E000503008180068704700688900503008181A
:10A6F0000260704730B5014620310A78012A15D032
:10A7000001220A7002234B700468CA236362046842
:10A710005323636203689C6820252C439C60006877
:10A72000FF2343624A700020087030BD022030BD14
:10A7300010B504F017F910BD70B5044600688168C3
:10A740008025C90400290BDAC068C00508D5204659
:10A75000FFF7EEFF2168C8682840FF388238C860DC
:10A760002068816889040BD5C068800508D520461B
:10A77000FFF7B3FF2068C168054A29408918C16006
:10A78000012004494004486101202034607070BDFC
:10A790007FFDFFFF00040140F8B505460446203563
:10A7A000287801281DD001202870022068702268B6
:10A7B000CA205062226853205062FF2001300026D8
:10A7C000FF2781421CD121688A6882438A60206801
:10A7D00081680122120391438160FFF75BFA0090C8
:10A7E00009E00220F8BDFFF755FA0099411A7D20D3
:10A7F000C00081421BD82068C068C007F3D020E0A9
:10A80000206881680122520291438160206881683A
:10A81000120191438160FFF73DFA00900DE0FFF7D0
:10A8200039FA0099411A7D20C000814205D920687B
:10A830004762032068702E70F8BD2068C0688007EA
:10A84000EDD520684762012068702E700020F8BDA9
:10A8500010B500680B464068C021C94301400002A2
:10A86000000ECC04D870E40E5C708C06A40E0904B3
:10A87000490F9C701970002A0AD103F083FED8702A
:10A88000587803F07FFE5870987803F07BFE98703C
:10A89000002010BD30B50B460168896A5960016817
:10A8A00009694904490C9960006804680F48214609
:10A8B000014088024D04800E18706D0E49065D70CF
:10A8C000490E99706102490E40242140D970002A36
:10A8D0000AD103F057FE1870587803F053FE5870F1
:10A8E000987803F04FFE9870002030BD7F7F7F0086
:10A8F000F8B5040050D0254620356878002803D1EB
:10A900002870204600F052F8022068702168CA20A2
:10A910004862216853204862204603F047FEFF2624
:10A9200004270028206802D046626F7034E08168F6
:10A930001D4A11408160216888686268A3691043DC
:10A9400022691A43104388602168E0680861206822
:10A95000016922891204114301612068C1688022C3
:10A960009143C1602068C16C89088900C164E169B4
:10A97000606901432068C26C1143C164206880682B
:10A9800080060BD4204600F0DDF9002806D02068B0
:10A9900046626F70002028700120F8BD2068466272
:10A9A000012068700020F8BDBFFF8FFF00B597B091
:10A9B0000420009000200A90FF2001300290684699
:10A9C000FFF73CFC002801D0FEF706FA20200E908D
:10A9D000C0020F900EA8FFF741FA002801D0FEF741
:10A9E000FBF9084801690122920411430161002228
:10A9F00011460220FFF7E4F90220FFF7D5F917B05E
:10AA000000BD000040100240FEB506460446203658
:10AA100030780B4601283ED0012030700220707043
:10AA2000184620300090206800278068002A34D023
:10AA3000400600D4DF7019789D7809040D435978D9
:10AA4000DA780902120411430D430099D869097894
:10AA500009060D4305435869996905435868084339
:10AA600000902168CA204862216853204862FF2074
:10AA70005A6A01308021824245D12268936883431B
:10AA800093602068C2680A40FF3A823AC260FFF7CA
:10AA900001F9019024E00220FEBD400600D4DF70E1
:10AAA000187803F077FD0504587803F073FD000271
:10AAB0000543987803F06EFD0543D87800040543FC
:10AAC0000098007803F066FD00060543D869C1E7E9
:10AAD000FFF7E0F80199411A7D20C00081422AD891
:10AAE0002068C068C007F3D02068C561216800985D
:10AAF000486420688168FF22013211438160206828
:10AB00008168120130E02068826801235B029A4369
:10AB100082602068C2680A401D495118C160FFF771
:10AB2000B9F801900EE0FFF7B5F80199411A7D20C0
:10AB3000C000814206D92168FF204862032070705E
:10AB40003770FEBD2068C0688007ECD520680562BC
:10AB500021680098886420688168012252021143AC
:10AB60008160206881681201114381600948026890
:10AB7000012149040A43026082680A438260216815
:10AB8000FF2048620120707037700020FEBD000079
:10AB90007FFDFFFF00040140F8B50546044620355F
:10ABA00028780B4601280FD00120287002206870F9
:10ABB000002A0BD0D8789E7800040643587809788C
:10ABC00000024903084317E00220F8BD5878C10687
:10ABD00003D5EF2108400A305870D87803F0DAFC2A
:10ABE0000604587803F0D6FC00020643987803F078
:10ABF000D1FC06431878400306432168CA20486206
:10AC0000216853204862204603F0D0FC002700282A
:10AC100011D111480640206846602068C168802232
:10AC20009143C1602068806880060CD4204600F003
:10AC300089F8002807D02168FF2048620420687046
:10AC40002F700120F8BD2168FF2048620120687044
:10AC50002F700020F8BD00003FFFFF00F8B506464A
:10AC60000446203630780D46012822D0012030706D
:10AC700002207070206800278068002A1BD04006E0
:10AC800000D4EF702978A878090408436978EA7835
:10AC9000090212041143084300902168CA20486247
:10ACA000216853204862204603F080FC002837D1F9
:10ACB00016E00220F8BD400600D4EF70287803F0BB
:10ACC00069FC0304687803F065FC00020343A8787C
:10ACD00003F060FC0343E878000403430093DCE7DF
:10ACE000174900980840216808602068816801229F
:10ACF0009204914381602969E868084321688A6861
:10AD0000104388602068C16880229143C160206838
:10AD1000806880060CD4204600F014F8002807D084
:10AD20002168FF2048620420707037700120F8BD50
:10AD30002168FF2048620120707037700020F8BD44
:10AD40007F7F7F0070B504460068C168A0229143F0
:10AD5000C160FEF79FFF7D260546F60006E0FEF780
:10AD600099FF401BB04201D9032070BD2068C06824
:10AD70008006F4D5002070BD02480169022211430B
:10AD80000161704700E000E0094910B5401E8842AB
:10AD900001D9012010BD074C60610321081F04F098
:10ADA0004BFB0020A06107202061002010BD0000A7
:10ADB000FFFFFF0000E000E002480169022291432A
:10ADC0000161704700E000E0014660310A7D012A20
:10ADD00009D001220A750068026802231A43026042
:10ADE000002008757047022070477047FEB5054681
:10ADF00004466035287D00269446012811D00123A1
:10AE00002B752420A067206802689A430260276897
:10AE1000B8680322120590430843B860002902D0A5
:10AE200015E00220FEBD6046009101902068416857
:10AE3000102291436A46928811434160206841681C
:10AE40006A4609029279090A120611434160206894
:10AE5000016819430160FEF71DFF0949009103468F
:10AE6000012100228905204604F01AF9002801D0AA
:10AE7000032601E02020A067002028753046FEBD93
:10AE8000FFFFFF01704700000C4A10B500219042FF
:10AE900006D110466030017501220949603809E089
:10AEA000084A904208D110466030017504490122D9
:10AEB0002B39603800F0D6F910BD0000A005002045
:10AEC0003C00002024060020F8B502680446D06942
:10AED00011689668814B05461D402023002D6CD0DB
:10AEE000F7077F4DFF0FBC460D402F4379D0254615
:10AEF000C7078035002F06D0CF0504D5012717627C
:10AF00002A683A432A60820708D5F20706D02768E4
:10AF100002223A622A6804273A432A60420708D587
:10AF2000F20706D02668042232622A6802263243DB
:10AF30002A6002070AD50A461A406646324305D0FF
:10AF40002668082232622E6816432E60020508D554
:10AF50004A0106D501222668D20232622A681A43C3
:10AF60002A602A68002A30D0800606D5880604D5D3
:10AF7000616E002901D020468847286821688968C9
:10AF8000490602D42821084225D0204603F09BFE22
:10AF900020688168490619D5826840218A43826009
:10AFA000206F002812D04F498163206FFEF700FB0D
:10AFB00000280AD0206F816B06E0850611D58D062A
:10AFC0000FD5616E77E020468847F8BD2046FFF731
:10AFD0005BFFF8BD05E02046FFF756FF0020286024
:10AFE000F7E7256E012D56D1C50654D5CD0652D5AD
:10AFF00010261662206881682546490640350029DA
:10B000002ADA226F116849680904090CE1D02F8BF4
:10B010008F42DED9698311680968890617D40168EF
:10B0200032019143016020688168490849008160CC
:10B0300020688168402291438160E3670020206698
:10B0400020680168B1430160206FFEF78FFA288BFA
:10B05000698B401A81B21AE0298B6A8B891A6A8B34
:10B0600089B2002AB5D00029B3D00268FF25213566
:10B07000AA43026020688268520852008260E36737
:10B0800000202066606620680268B24302602046A5
:10B09000FFF7ABFE9DE7C50208D5750206D5012076
:10B0A000000510622046FFF7EDFE92E7050605D584
:10B0B0000D0603D5A16E002985D18AE7400688D503
:10B0C000480686D5116820464024A1431160836755
:10B0D0000021816600F026FA7BE700000F080000DF
:10B0E000200100042DEC000810B5040003D0A06F6F
:10B0F000002802D007E0012010BD00217420015576
:10B10000204600F027F82420A0672068016849083D
:10B1100049000160204603F06DFE0128ECD0606A12
:10B12000002802D0204603F0E9FC2068416809228B
:10B13000D20291434160206881682A229143816054
:10B1400020680168012211430160204603F03CFDA4
:10B1500010BD0000F0B587B0064614216846FCF724
:10B16000D2FC394F346800253849022001220323DC
:10B17000BC4232D18C6B47043C438C63CC6A0443A1
:10B18000CC62C96A01AC01400591990200910DC4DD
:10B190000720049069462E48FEF7A6FC2E4C2D4849
:10B1A0002060052060601020E560A0606561A561F9
:10B1B0008020E5612061800120622046FEF772FA5E
:10B1C000002801D0FDF708FEF466002201211D20B1
:10B1D000A662FEF7F5FD1D2020E0204EB44221D1ED
:10B1E0008C6B0126760434438C63CC6A1443CC62A6
:10B1F000C96A0190C907C90F059104200C21049068
:10B20000009105200295039369460007FEF76CFC48
:10B21000002202211C20FEF7D3FD1C20FEF7C4FDF6
:10B2200007B0F0BD0E488442FAD1486B0122920368
:10B23000104348630DF0B2FA002202211B20FEF7F2
:10B24000BFFD1B20EAE7000000480040001002405C
:10B25000000400501C000240A806002000440040EA
:10B260000038014030B5C36F202B27D100290BD007
:10B27000002A09D0012483682403A34206D103696C
:10B28000002B03D1CB0701D0012030BD0346603332
:10B290001C7D012C12D001241C7500230366084C70
:10B2A0000368A34207D05C68240204D51C6801250A
:10B2B000AD062C431C6003F0A7FE30BD022030BD5C
:10B2C00000480040F8B52F4901222F4C88421ED17A
:10B2D0002E4920463C300E8E4D6B0378AB550B8EBD
:10B2E0005B1C0B86E17D4C290AD12949097800298C
:10B2F00006D141780D2903D101780A2900D12275A0
:10B3000001784170204901223C311E4811E0214959
:10B31000884211D1204BA08E617C1954401CA0861C
:10B320000D2901D00A2900D1E274174901221131F7
:10B330001848FFF797FFF8BD184D0026A842FAD12C
:10B340002F4660371049012230311448FFF78AFF39
:10B35000002803D02020E8673E75F3E70A48303024
:10B360000178401E0170207A0028E4D00A4AE07972
:10B37000FA3A1154401CC0B2E071FA28DBD12672AF
:10B38000F8BD0000A005002000000020880100207A
:10B390006701002024060020DA020020F0060020C9
:10B3A000FFB50446806F83B017460D4620285ED156
:10B3B000002D0AD0002F08D0A168C001814207D11A
:10B3C0002069002804D1E80702D0012007B0F0BDB1
:10B3D000204660300090007D012848D0009801216F
:10B3E00001750020802108512120A067FEF752FC42
:10B3F000264640360190378277820120A1680003FB
:10B40000814202D12069002805D02F4600250099ED
:10B410000020087511E00027F9E70022802120466E
:10B4200003F03EFE002815D1002F15D02168387892
:10B4300088627F1C708A401E7082708A019B00287F
:10B4400006980090E9D100224021204603F028FE12
:10B45000002808D00320B9E728882168C005C00D5E
:10B460008862AD1CE6E72020A0670020AEE702203E
:10B47000ACE70000F8B50446806F20284AD10029C7
:10B480000BD0002A09D00123A0681B03984206D1E3
:10B490002069002803D1C80701D00120F8BD254646
:10B4A0006035287D012835D00120287520464030A0
:10B4B000E164028242820026274680373E602120D6
:10B4C000A067E06E00281AD01349C162E16E1348EC
:10B4D0000863E16E12484863E06E13468663206895
:10B4E000E16C283084466246E06EFEF723F90028BE
:10B4F00005D0102038602E752020A067CDE7216888
:10B50000402008622E752068816880221143816086
:10B510000020F8BD0220F8BD8DEC0008BDEC00084D
:10B5200041EC0008704770477CB506461A484168F0
:10B53000C9430907FBD4194C606B65152843606348
:10B5400000211748FDF7EEFD1648009016480190BF
:10B5500069461348FDF73CFEA01401906946009629
:10B560000F48FDF735FE0E48FDF7D2FF0021C94315
:10B570000B48FDF76DFF0A48FDF774FE084980B2DD
:10B580000A689368022633439360096803220A60BD
:10B59000616BA94361637CBD0070004000100240F4
:10B5A00034050020FFFF07000110000070B51749A7
:10B5B00004464A6A08698018000EE0714A6A086900
:10B5C0008018000CA071088A8A8C8018000A6071AB
:10B5D000087C8A8C801820714869000EE0704869E8
:10B5E000000CA070888A000A6070087D2070052514
:10B5F000625D07A1084803F0CFFE074908461438EA
:10B60000FCF78CFA6D1C082DF2DB70BD4000F81FB2
:10B6100025303278000000003004002070B50C4660
:10B62000054600210448FFF759F828600121024827
:10B63000FFF754F8206070BD7407002010B50C4669
:10B64000024600210448FFF74FF822460121024834
:10B65000FFF74AF810BD00007407002030B587B02E
:10B660000546694605A800F00BF8840A890580059F
:10B670000C43800D00F0E0F92880204607B030BD73
:10B6800070B505460C4600222248FFF703F9002258
:10B69000294620486668FFF7DBF8002221461D484E
:10B6A000FFF7F8F86068B042F1D1E8781A4A01462D
:10B6B0005043C01C8308880729D0184869783D2268
:10B6C0000E4651430A463C3A7100891EC840D10FCC
:10B6D00080078918800F4910081AC018A978401EE1
:10B6E00008180F493C2248436178E12351432278EE
:10B6F0001B015A438918A27810180818810D83027B
:10B700006068084C0022201A1818514170BD064884
:10B71000D4E7000074070020B5050000A0AA990036
:10B7200080510100FF030000505544000320704782
:10B730000148006870470000C007002000B587B0CE
:10B74000694605A8FFF79CFF0249096807B0401A3F
:10B7500000BD0000C007002000B587B0694605A8FD
:10B76000FFF78EFF07B000BD10B5084C2078002809
:10B770000AD100F04DF8FF2101310548FFF70CF820
:10B7800000F0ACF80120207010BD00004E00002039
:10B790007407002010B50D4C0021042000F096F92C
:10B7A00001200B494004486121688868C0040BD51A
:10B7B000C868C00508D5C86880221040FF388238A4
:10B7C000C8602046FEF7B4FF10BD000074070020DB
:10B7D0000004014070B50446FFF7B0FF211A0B4D7D
:10B7E0000220285EC01C814201D9002100E0012115
:10B7F000042000F06BF900F055F9012802D1022075
:10B80000285E241A204600F075F870BD4E00002016
:10B8100030B52E492E4891B0002412C01F2101607E
:10B82000846004612B49446141600838FFF760F887
:10B8300000212748FEF752FF012500281CD1684649
:10B84000C470457085700570002269462048FFF776
:10B85000A3F90B940C940F9400220BA91C480E948E
:10B86000FFF7FCF91C4A00211948FEF73DFF0022B2
:10B8700001211748FEF738FF1548FEF73BFF282146
:10B8800001A8FCF740F968460471447103218171F5
:10B890000294049405940694079408A808940571EA
:10B8A000FF2001300A90012201A90948FFF7ACF8F6
:10B8B000052168468171012040020A90012201A9F8
:10B8C0000348FFF7A1F811B030BD00000028004088
:10B8D00074070020FF0300008000926510B5044C3F
:10B8E0002046211D1830FFF7CBFE206010BD000060
:10B8F000C0070020F0B587B0044614223F4901A8D4
:10B90000FCF7E8F83D485038406E009000F07EF8B3
:10B910003B4802993B4A401AA105890D081887B295
:10B92000A10A68468078534202E08918401C80B220
:10B930009942FAD26A461579E122120102E0891A87
:10B940006D1CADB29142FAD26A46547902E0641C91
:10B95000A4B23C393C29FAD2927951188EB2012115
:10B96000890203E07A1A761C97B2B6B28F42F9D2F6
:10B9700003E03C3E641CB6B2A4B23C2EF9D203E014
:10B980003C3C6D1CA4B2ADB23C2CF9D203E0183D96
:10B99000401CADB280B2182DF9D26946C97889072A
:10B9A00069464A7827D01849491E515C814202D223
:10B9B000FBF79EFF08461249CA1B10492C394A6002
:10B9C000052252068A618E704C700A460D70203234
:10B9D00010706846C079C8700020C861FF224861B5
:10B9E0000132C8604A620861024608462438FFF7FF
:10B9F0000BF807B0F0BD04490C31D5E7C4070020AF
:10BA0000FF03000080AEFEFFF08A010810B5FF21A1
:10BA100001310748FEF7C0FE05480168C86880226A
:10BA20001040FF388238C86002499002486110BD5A
:10BA3000740700200004014010B57D2103F0D7FCFD
:10BA40004906C009084310BD10B5410EC0017D2252
:10BA50000023FBF777FF10BDFEE7000070B5054639
:10BA6000FFF7AAF90D4CA06B21040843A063FEF771
:10BA7000B3F9FEF7A9F9E0680121C9030843E060C2
:10BA80000748016804221143016001210846FEF7BE
:10BA9000B3F9A847FFF770F970BD0000001002402D
:10BAA00000700040EFF3108172B607480268002A68
:10BAB00001D0002005E04068002801D0012000E00E
:10BAC000022081F3108870475400002010B5EFF376
:10BAD000108272B6064B00291C6803D0012903D1DD
:10BAE000044300E084431C6082F3108810BD000012
:10BAF0005400002000B585B001280BD0022812D0D8
:10BB000003281CD114220F496846FBF7E3FFFF23EB
:10BB1000092210E00B49142228396846FBF7DAFFA6
:10BB2000FF23082207E00749142214396846FBF76F
:10BB3000D1FFFF230A2269460348FFF731FC05B015
:10BB400000BD0000F88F0108F006002010B506497E
:10BB5000064802F0F1FE0649044802F055FF03488A
:10BB600002F064FF10BD000039E200085804002014
:10BB700060EA000010B5124810490160002101225E
:10BB8000D207C1634260C161012281614263072320
:10BB900081608363026102462032C160117051707E
:10BBA00004234361816207481173416B42151143BD
:10BBB00041630348FDF75AFB10BD0000002401401B
:10BBC000340500200010024008B50848016B01222E
:10BBD00011430163006B10400022009011460A20BF
:10BBE000FEF7EEF80A20FEF7DFF808BD001002406D
:10BBF000F0B53D4895B0C16A80242143C162C16A55
:10BC000021401491C26A04210A43C262C26A0A40F6
:10BC10001492C16A01252943C162C16A2940149165
:10BC2000C26A02210A43C262C06A08401490142109
:10BC30000AA8FBF768FF2D480A940B900024052002
:10BC40000AA900070C94FDF74FFF14216846FBF783
:10BC50005AFF0720000303260090694603960195CA
:10BC600002942348FDF740FF002229032048FEF7F5
:10BC70000AF86F03002239461D48FEF704F8002237
:10BC8000A9031B48FDF7FFFF142105A8FBF73BFFA5
:10BC90000695184D05A90597089607942846FDF7BF
:10BCA00023FF012239462846FDF7EDFF14210FA896
:10BCB000FBF729FF70030F90052010940FA9119432
:10BCC0000007FDF711FF002202210720FEF778F898
:10BCD0000720FEF769F80CF08BFD012206490748A2
:10BCE000FFF7C0FA15B0F0BD0010024000002110AF
:10BCF000000400500008005030000020F006002032
:10BD000010B5084806490160062141600649C16036
:10BD10008160FDF7C5FF002801D0FDF75DF810BD7B
:10BD20000030004090050020FF0F000010B50F48C4
:10BD30000D490160E1214902416000218160C1603B
:10BD400001610C2281614261016230214162012165
:10BD5000090381634900C163FFF7C6F9002801D0D8
:10BD6000FDF73AF810BD000000480040A005002093
:10BD700010B50C480A4901604B21C90141600021FE
:10BD80008160C16001618161C1610C220162426117
:10BD90004162FFF7A9F9002801D0FDF71DF810BD99
:10BDA000004400402406002010B501210446490546
:10BDB000FFF71CF82046FFF707F810BDF0B5044662
:10BDC000FF4D85B00120E8706B22FE4812018218F9
:10BDD000217820300190FC4803920090007C029072
:10BDE000F9484C262038027F0027C08B542901D304
:10BDF00001F0E7FD4B007B449B885B009F445300B0
:10BE00007900E90011015701C300330145013A08E7
:10BE1000610702046A018C03BB03C80322042F04D8
:10BE200042045A046F04810426077B079D07F90723
:10BE300020082D081B0A370A540A700A8D0AA10A25
:10BE4000A80AB20AB90AD20AE30DFF0D130E3A0886
:10BE50001B0E170E250E350E9804B204B606D70633
:10BE6000F8060B07060B280B350B420B680B540B1F
:10BE7000580B5E0B620B4C0D540D770D840D980D15
:10BE80006F0E940EA90E3A08BB0EB30ED10EEE0E35
:10BE9000161164113A086C047911C30707110E11C9
:10BEA000BD10B4019501002009F00CFF082809D04D
:10BEB0004B2602F02FFD0146C4A003F05DFA7D245D
:10BEC000E4000DE0C94807700120207002F022FD57
:10BED0000146C7A065E005F0EBFD2046FDF75EFCDE
:10BEE0000121052049030007FDF7C0FE0128F2D01B
:10BEF000F2E3C6480078012806D014E005F0D8FD2A
:10BF00007D20C000FDF74AFC012105204903000700
:10BF1000FDF7ACFE0128F1D0BC480078012802D121
:10BF2000BB48FDF73BFC002009F032FF082805D094
:10BF30004B2602F0EFFC0146B6A032E0BE48007886
:10BF400001280AD0B148007801281AD005202070B5
:10BF500002F0E0FC0146B9A023E0C3A10398FBF77F
:10BF6000E9FD002801D00E2000E00D202070E879C6
:10BF7000012803D17D204001FDF710FCAE48077079
:10BF8000E6E70A20E3E700200AF052F921280BD067
:10BF9000222810D0232815D04B2602F0BBFC0146E6
:10BFA000B3A003F0E9F9A3E70220207002F0B2FC8D
:10BFB0000146BBA0F5E70220207002F0ABFC014671
:10BFC000C0A0EEE70220207002F0A4FC0146C6A04B
:10BFD000E7E700200AF052F9082805D04B2602F0C6
:10BFE00099FC0146C9A0DCE70320207002F092FC16
:10BFF000734A014640321446CDA003F0BDF99AA120
:10C000007048FBF797FD0028CDD010216D48FBF755
:10C010007AFD0F2221466B48FBF75CFD06F05EFAC5
:10C0200066E700200AF066F9082805D04B2602F0E2
:10C0300071FC0146C6A0B4E70620207002F06AFC3D
:10C040005F4A01462C321446CAA003F095F95D48B8
:10C05000102110300090FBF756FD0F22214600986A
:10C06000FBF738FD44E700200AF072FA082807D0F1
:10C0700002F050FC0146C7A003F07EF9072084E3DC
:10C0800002F048FC0146CDA0F6E700200AF018FABD
:10C09000082807D002F03EFC0146D4A003F06CF95A
:10C0A0000420ECE702F036FC0146DB48F6E700200E
:10C0B0000AF01AFD082808D04B2602F02BFC014696
:10C0C000D6A003F059F90B20D9E702F023FC014672
:10C0D000DCA0F6E73B4864A1C130FBF72BFD00284C
:10C0E0000FD10AF031F8082805D04B2602F012FCD7
:10C0F0000146E2A003E002F00DFC0146E5A003F0DA
:10C100003BF959A10398FBF715FD002856D10D20E6
:10C11000B5E705F099FC7D20C000FDF73FFB02F07C
:10C12000F9FB0146E2A003F027F9012105204903AC
:10C130000007FDF79BFD0028EBD0012105204903F6
:10C140000007FDF793FD012807D102F0E3FB01464C
:10C15000DEA003F011F9E74807704C202070184862
:10C1600004212430C170C3E653202070E2480078D7
:10C17000002819D1E1480770287C002808D00098D1
:10C18000C07F002804D0104920398968414302E06B
:10C190000D48203881687D20C0004143D84802F016
:10C1A00033FCD74802F042FC287C002804D0D54953
:10C1B0000878401C08702F740120A5E1E6E100001A
:10C1C00064010020A6140020B80000205B25755DE6
:10C1D0004E42494F5420646964206E6F742072652A
:10C1E00073706F6E642E0D0A000000001E000020A8
:10C1F0005B25755D4E42494F54206861732072651E
:10C2000073706F6E6465642E0D0A00000F000020CD
:10C21000881300005B25755D4563686F206D6F6452
:10C2200065207475726E6564206F6666206661694C
:10C230006C65642E0D0A00000E0000205B25755D04
:10C240004563686F206D6F6465207475726E6564F8
:10C25000206F6666207375636365737366756C6CB7
:10C26000792E0D0A000000004E554C4C00000000D5
:10C270005B25755D5265717565737420666F7220FC
:10C280006D616E756661637475726572206D6F6441
:10C29000656C206661696C65642E0D0A0000000003
:10C2A0005B25755D4D6F64656C20696E666F726DA0
:10C2B0006174696F6E3A424739352D4D312E0D0A42
:10C2C000000000005B25755D4D6F64656C20696E34
:10C2D000666F726D6174696F6E3A424739352D4DE4
:10C2E000322E0D0A000000005B25755D4D6F646500
:10C2F0006C20696E666F726D6174696F6E3A424749
:10C3000039352D4D332E0D0A000000005B25755D7B
:10C310004661696C656420746F20726561642049B0
:10C320004D4549206E756D6265722E0D0A00000044
:10C330005B25755D54686520494D4549206E756DD6
:10C340006265722069733A25732E0D0A00000000A1
:10C350005B25755D4661696C656420746F2072654C
:10C36000616420494D5349206E756D6265722E0DD2
:10C370000A0000005B25755D54686520494D5349EE
:10C38000206E756D6265722069733A25732E0D0AF1
:10C39000000000005B25755D4661696C6564207472
:10C3A0006F207365742074686520467265717565C9
:10C3B0006E63792062616E642E0D0A005B25755DE7
:10C3C0004672657175656E63792062616E64206383
:10C3D0006F6E66696775726174696F6E20737563DD
:10C3E0006365737366756C2E0D0A00005B25755DC1
:10C3F0004661696C656420746F207365742074688D
:10C4000065204E6574776F726B2043617465676F4A
:10C4100072792E0D0A000000A0C501085B25755D2C
:10C420004661696C656420746F207365742074685C
:10C4300065206461746120666F726D61742E0D0AEF
:10C44000000000005B25755D5365742074686520ED
:10C450006461746120666F726D617420666F722012
:10C4600073656E64696E6720616E642072656365D2
:10C470006976696E672E0D0A000000005B25755D08
:10C480004661696C656420746F2073657420415047
:10C490004E0D0A005B25755D5365742041504E209A
:10C4A0007375636365737366756C6C790D0A000050
:10C4B0005B25755D436C6F73696E67204E42206D1E
:10C4C0006F64756C652E2E2E0D0A00005B25755D60
:10C4D0004E42206D6F64756C6520706F7765722DAC
:10C4E0006F6666207375636365737366756C2E0D76
:10C4F0000A000000220000202C0000202100002063
:10C500004404002012000020A87102F003FA014642
:10C510009EA002F031FF73E0012100224903AB48E5
:10C52000FDF7B1FBAA480321C170AA49AA4802F04D
:10C530006BFAAA480078A87300200AF085F9082849
:10C5400007D002F0E7F90146A5A002F015FF16207A
:10C5500095E54C20207002F0DDF9A0490A880146DB
:10C56000ABA002F009FF9C4802F060FA02F0D2F999
:10C570000146B3A015E5002009F0F8FE082805D013
:10C580004B2602F0C7F90146BBA00AE50E2076E56E
:10C590000E2009F035FF02F0BDF901468C484278C3
:10C5A000BCA002F0E9FEA87D08280AD0E87CC049BA
:10C5B000401CE8744C20207001200870844887706B
:10C5C00096E4E87900280BD00921217080490124E4
:10C5D0008C70B84900280F700099CF7702D005E021
:10C5E0000F21F2E7B44806F0F5FDEC71FF20F530BD
:10C5F00006F0F0FDB1480770B1480770B148077008
:10C60000EF7475E4002009F053FC082806D04B268F
:10C6100002F080F90146ACA002F0AEFE0098407C2A
:10C62000002801D0012801D0152004E0AD48007F8A
:10C630000328F9D12D202070AB4800780128BFD104
:10C640000C201CE500200AF0CFFB082805D002F0E2
:10C6500061F90146A5A002F08FFE10200FE5002031
:10C660000AF09AFA082805D04B2602F053F9014641
:10C67000A9A003E002F04EF90146B5A002F07CFE4D
:10C680001120FCE400200AF0F1FA082806D04B261D
:10C6900002F040F90146BDA002F06EFE12202070AB
:10C6A00002F038F90146C3A002F066FE002009F04E
:10C6B000CBFC1DE400200AF0DBF9082806D04B264D
:10C6C00002F028F90146C6A002F056FE13202070A1
:10C6D00002F020F9014600E0CBE3CBA061E40020AA
:10C6E0000AF066F8082807D002F014F90146D1A034
:10C6F00002F042FE1420C2E402F00CF90146D5A07B
:10C70000F6E7DE49DE48FBF715FA002809D10AF002
:10C71000E3FA082807D002F0FDF80146D9A002F09C
:10C720002BFE0A20ABE402F0F5F80146DDA0F6E7A7
:10C73000002008F03BFB082807D0492020704B263A
:10C7400002F0E8F80146E1A02BE40098807C012883
:10C7500006D02F20207002F0DDF80146E7A020E48B
:10C760002E20F7E7002008F071FB082807D04920A9
:10C7700020704B2602F0CEF80146ECA011E42F20E9
:10C78000207002F0C7F80146EEE175E35B25755DA8
:10C790005475726E206F666620746865206D6F64D4
:10C7A000756C6520726563656976696E6720616E78
:10C7B000642073656E64696E672052462066756EEC
:10C7C0006374696F6E2E0D0A0000000000080050AF
:10C7D0008801002010270000E404002064000020ED
:10C7E0005B25755D474E5353206661696C65642017
:10C7F000746F207475726E206F6E206F7220474EBA
:10C8000053532069732072756E6E696E670D0A004E
:10C810005B25755D5375636365737366756C6C79C1
:10C82000207475726E206F6E20474E53532C4669EC
:10C83000782054696D656F75743A2564730D0A002C
:10C840005B25755D4E42206D6F64756C6520697364
:10C85000206F627461696E696E67206C6F636174CA
:10C86000696F6E20696E666F726D6174696F6E2E8E
:10C870002E2E0D0A000000005B25755D4661696C77
:10C88000656420746F2073657420434F50530D0A04
:10C89000000000005B25755D5369676E616C205375
:10C8A0007472656E6774683A25640D0A00000000B2
:10C8B0002500002012000020B80B000027000020F7
:10C8C00026000020210000205B25755D4661696C13
:10C8D000656420746F206765742074696D650D0A46
:10C8E00000000000980000200F0000205B25755D0F
:10C8F000556E61626C6520746F2071756572792068
:10C900006E6574776F726B20696E666F726D61749D
:10C91000696F6E0D0A0000005B25755D4661696CEC
:10C92000656420746F20636F6E6669677572652039
:10C93000706172616D657465727320666F722054E8
:10C9400043502F495020636F6E746578740D0A0050
:10C950005B25755D5375636365737366756C6C7980
:10C9600020636F6E666967757265642070617261BD
:10C970006D657465727320666F72205443502F4941
:10C980005020636F6E746578740D0A005B25755DC9
:10C990004661696C656420746F20646561637469C5
:10C9A000766174652050445020636F6E74657874AE
:10C9B0000D0A00005B25755D5375636365737366CF
:10C9C000756C6C7920646561637469766174656403
:10C9D0002050445020636F6E746578740D0A000017
:10C9E0005B25755D4661696C656420746F206163C9
:10C9F0007469766174652050445020636F6E74656D
:10CA000078740D0A000000005B25755D5375636343
:10CA100065737366756C6C79206163746976617493
:10CA200065642050445020636F6E746578740D0AFD
:10CA3000000000005B25755D444E5320636F6E66F9
:10CA4000696775726174696F6E206661696C65648F
:10CA50000D0A00005B25755D444E5320636F6E66C2
:10CA6000696775726174696F6E206973207375638D
:10CA70006365737366756C0D0A00000068C2000878
:10CA8000161B00205B25755D4E545020636F6E664B
:10CA9000696775726174696F6E206661696C65643F
:10CAA0000D0A00005B25755D4E545020636F6E6665
:10CAB000696775726174696F6E206973207375633D
:10CAC0006365737366756C0D0A0000005B25755D08
:10CAD0004661696C656420746F20636F6E66696778
:10CAE0007572652061757468656E746963617469D7
:10CAF0006F6E206D6F64650D0A0000005B25755D2B
:10CB00004D616E6167652073657276657220616E36
:10CB10006420636C69656E742061757468656E74F9
:10CB200069636174696F6E2E0D0A00005B25755D87
:10CB30004661696C656420746F20636F6E66696717
:10CB400075726520736572766572204E616D652021
:10CB5000496E6469636174696F6E2066656174759E
:10CB600072650D0A00000000C4A003E5002008F073
:10CB7000DFF8082807D0492020702F7501F0CAFE81
:10CB80000146CAA0F6E40098C07C002806D03020F8
:10CB9000207001F0BFFE0146CCA0EBE4287D002808
:10CBA00001D04E2000E0152020702F75F1E7002005
:10CBB00006F0AAFD082807D0492020702F7501F043
:10CBC000A9FE0146D0A0D5E40098C07C012806D07B
:10CBD0003120207001F09EFE0146D6A0CAE4287DD7
:10CBE000002801D04E2000E0152020702F75F1E7BD
:10CBF000002006F0CFFD082806D04920207001F063
:10CC000089FE0146D8A0B5E43220207001F082FEF2
:10CC10000146E1A0AEE4002006F004FE082806D09C
:10CC20004920207001F076FE0146E9A00AE0287D47
:10CC3000002801D04E2000E01520207001F06AFE8F
:10CC40000146EFA002F098FB2F75B9E4019806F0B9
:10CC500081F9012818D0019806F07CF9022813D038
:10CC6000019806F0B9F901280ED0019806F0B4F940
:10CC7000022809D000988078012805D0002009F00A
:10CC800039FD08280DD09BE4EB480078012806D038
:10CC90004E20207001F03EFE0146E8A06AE40C2020
:10CCA000F7E701F037FE0146EDA002F065FB4C20EE
:10CCB0002070F348032101710421C17001206874C0
:10CCC0007EE4002009F094F9082805D001F022FE46
:10CCD0000146EC4802F050FB0098407C012803D14B
:10CCE000E948007F032801D04E2031E42D20207038
:10CCF0000120287564E4002009F052FE172108285D
:10CD00000FD0A87B0A380006000EA8730FD0DF48AA
:10CD100001F08CFE4C20207001F0FCFD0146DCA0EF
:10CD200028E4217001F0F6FD0146E1A022E4217023
:10CD300001F0F0FD0146EBA01CE401225103F44890
:10CD4000FCF7A1FF002009F057FE0828F148017800
:10CD500008D0012913D04E20207001F0DBFD0146E0
:10CD6000EDA007E4012906D04E20207001F0D2FD8D
:10CD70000146F1A009E4532121700770F6E7532121
:10CD800021700770E9E70221BD48012AC17047718F
:10CD900006D0022A06D0032A06D0042A06D007E0CD
:10CDA000182004E0252002E0332000E0412020701C
:10CDB00001F0B0FDB44C0146A269501CA061E7A08F
:10CDC00002F0DAFA0BF0F6FAE08EEC4988420AD16A
:10CDD0000098407D012806D12879002803D104F06D
:10CDE00017FF01202871A6480421406BFAF78BFE3B
:10CDF00007E4E3490198FAF79DFE002805D1E049D0
:10CE0000E048FAF797FE002806D05120207001F084
:10CE100081FD0146DCA061E4002006F091FD0828B8
:10CE200007D051204B26207001F074FD0146E1A08F
:10CE300054E41920207001F06DFD0146E5A04DE499
:10CE4000002006F005FE0A2814D023204B2620706F
:10CE500001F060FD0146E9A040E4002006F0B4FDC9
:10CE6000082808D023204B26207001F053FD0146EE
:10CE7000D8E13BE37CE2D7E1E9E200005B25755DA8
:10CE8000456E61626C6520536572766572204E61F5
:10CE90006D6520496E6469636174696F6E206665B3
:10CEA00061747572652E0D0A000000005B25755DCA
:10CEB0004661696C656420746F20656E61626C65A3
:10CEC0002053534C206D6F64650D0A005B25755D22
:10CED000456E61626C652053534C20616E64206323
:10CEE0006F6E6669677572652053534C20636F6E71
:10CEF000746578742F636F6E6E65637420696E64F9
:10CF000065782E0D0A0000005B25755D4661696C31
:10CF1000656420746F20636F6E6669677572652043
:10CF200043412063657274696669636174650D0AC3
:10CF3000000000005B25755D436F6E666967757262
:10CF400065207468652070617468206F66204341B5
:10CF500020636572746966696361746520666F72C7
:10CF60002053534C2E0D0A005B25755D4661696C9C
:10CF7000656420746F20636F6E66696775726520E3
:10CF8000636C69656E742063657274696669636158
:10CF900074650D0A000000005B25755D436F6E66C9
:10CFA0006967757265207468652070617468206FA8
:10CFB0006620636C69656E74206365727469666966
:10CFC0006361746520666F722053534C2E0D0A0006
:10CFD0005B25755D4661696C656420746F20636FC5
:10CFE0006E66696775726520636C69656E74207022
:10CFF000726976617465206B65790D0A0000000026
:10D000005B25755D436F6E66696775726520746830
:10D01000652070617468206F6620636C69656E744A
:10D020002070726976617465206B657920666F7215
:10D030002053534C2E0D0A00620000205B25755DC5
:10D040004E6F20444E53207265736F6C7574696F18
:10D050006E2072657175697265640D0A00000000CA
:10D060005B25755D5265736F6C76696E6720646FC2
:10D070006D61696E206E616D652E2E2E0D0A0000A9
:10D0800088010020C8C8000898000020E40400209F
:10D090005B25755D536561726368696E6720666FB5
:10D0A00072206C6F636174696F6E2E2E2E0D0A00F4
:10D0B0005B25755D5375636365737366756C6C7919
:10D0C000206F627461696E6564206C6F636174695E
:10D0D0006F6E20696E666F726D6174696F6E0D0A96
:10D0E000000000005B25755D4661696C6564207415
:10D0F0006F206F627461696E206C6F636174696F19
:10D100006E20696E666F726D6174696F6E0D0A00D4
:10D11000000800500F0000205B25755D4661696CBA
:10D12000656420746F207475726E206F6666204788
:10D130004E53530D0A0000005B25755D5375636304
:10D1400065737366756C6C79207475726E206F668A
:10D150006620474E53530D0A000000005B25755DA5
:10D160002A2A2A2A2A55706C6F61642073746172AE
:10D17000743A25752A2A2A2A2A0D0A00FFFF000080
:10D1800068C200085D1800205B25755D434F415063
:10D1900020706172616D6574657220636F6E66697F
:10D1A0006775726174696F6E206572726F720D0AB5
:10D1B000000000005B25755D434F415020636F6E9A
:10D1C00066696775726174696F6E206661696C6506
:10D1D000640D0A005B25755D434F415020636F6EFF
:10D1E00066696775726174696F6E207375636365D4
:10D1F000737366756C6C790D0A0000005B25755DB4
:10D200004661696C656420746F2043726561746562
:10D21000206120436F41502073657373696F6E0DF9
:10D220000A000000B2A0A0E41B20207001F072FBF5
:10D230000146B94899E4002006F08EFC082807D082
:10D2400023204B26207001F065FB0146B3A08CE43F
:10D25000BF49C048FAF76EFC002801D0202000E04A
:10D260001C20207001F056FB0146BBA07DE400208D
:10D2700006F0C2FC082807D023204B26207001F0BE
:10D2800049FB0146C1A070E4B248B1498130FAF7C8
:10D2900051FC002801D0202000E01D20207001F06A
:10D2A00039FB0146C6A060E4002006F0F5FC082822
:10D2B00007D023204B26207001F02CFB0146CDA087
:10D2C00053E4A349D848FAF735FC002801D02020C0
:10D2D00000E01E20207001F01DFB0146D3A044E4B5
